{
  "_format": "hh-sol-artifact-1",
  "contractName": "SocialFiProfile",
  "sourceName": "contracts/pandafi.sol",
  "abi": [
    {
      "inputs": [
        {
          "internalType": "address",
          "name": "_u2uToken",
          "type": "address"
        }
      ],
      "stateMutability": "nonpayable",
      "type": "constructor"
    },
    {
      "inputs": [
        {
          "internalType": "address",
          "name": "sender",
          "type": "address"
        },
        {
          "internalType": "uint256",
          "name": "tokenId",
          "type": "uint256"
        },
        {
          "internalType": "address",
          "name": "owner",
          "type": "address"
        }
      ],
      "name": "ERC721IncorrectOwner",
      "type": "error"
    },
    {
      "inputs": [
        {
          "internalType": "address",
          "name": "operator",
          "type": "address"
        },
        {
          "internalType": "uint256",
          "name": "tokenId",
          "type": "uint256"
        }
      ],
      "name": "ERC721InsufficientApproval",
      "type": "error"
    },
    {
      "inputs": [
        {
          "internalType": "address",
          "name": "approver",
          "type": "address"
        }
      ],
      "name": "ERC721InvalidApprover",
      "type": "error"
    },
    {
      "inputs": [
        {
          "internalType": "address",
          "name": "operator",
          "type": "address"
        }
      ],
      "name": "ERC721InvalidOperator",
      "type": "error"
    },
    {
      "inputs": [
        {
          "internalType": "address",
          "name": "owner",
          "type": "address"
        }
      ],
      "name": "ERC721InvalidOwner",
      "type": "error"
    },
    {
      "inputs": [
        {
          "internalType": "address",
          "name": "receiver",
          "type": "address"
        }
      ],
      "name": "ERC721InvalidReceiver",
      "type": "error"
    },
    {
      "inputs": [
        {
          "internalType": "address",
          "name": "sender",
          "type": "address"
        }
      ],
      "name": "ERC721InvalidSender",
      "type": "error"
    },
    {
      "inputs": [
        {
          "internalType": "uint256",
          "name": "tokenId",
          "type": "uint256"
        }
      ],
      "name": "ERC721NonexistentToken",
      "type": "error"
    },
    {
      "inputs": [
        {
          "internalType": "address",
          "name": "owner",
          "type": "address"
        }
      ],
      "name": "OwnableInvalidOwner",
      "type": "error"
    },
    {
      "inputs": [
        {
          "internalType": "address",
          "name": "account",
          "type": "address"
        }
      ],
      "name": "OwnableUnauthorizedAccount",
      "type": "error"
    },
    {
      "anonymous": false,
      "inputs": [
        {
          "indexed": true,
          "internalType": "address",
          "name": "owner",
          "type": "address"
        },
        {
          "indexed": true,
          "internalType": "address",
          "name": "approved",
          "type": "address"
        },
        {
          "indexed": true,
          "internalType": "uint256",
          "name": "tokenId",
          "type": "uint256"
        }
      ],
      "name": "Approval",
      "type": "event"
    },
    {
      "anonymous": false,
      "inputs": [
        {
          "indexed": true,
          "internalType": "address",
          "name": "owner",
          "type": "address"
        },
        {
          "indexed": true,
          "internalType": "address",
          "name": "operator",
          "type": "address"
        },
        {
          "indexed": false,
          "internalType": "bool",
          "name": "approved",
          "type": "bool"
        }
      ],
      "name": "ApprovalForAll",
      "type": "event"
    },
    {
      "anonymous": false,
      "inputs": [
        {
          "indexed": true,
          "internalType": "uint256",
          "name": "postId",
          "type": "uint256"
        },
        {
          "indexed": false,
          "internalType": "uint256",
          "name": "commentId",
          "type": "uint256"
        },
        {
          "indexed": false,
          "internalType": "address",
          "name": "author",
          "type": "address"
        }
      ],
      "name": "CommentAdded",
      "type": "event"
    },
    {
      "anonymous": false,
      "inputs": [
        {
          "indexed": true,
          "internalType": "uint256",
          "name": "hireId",
          "type": "uint256"
        },
        {
          "indexed": false,
          "internalType": "uint256",
          "name": "profileId",
          "type": "uint256"
        }
      ],
      "name": "HireCompleted",
      "type": "event"
    },
    {
      "anonymous": false,
      "inputs": [
        {
          "indexed": true,
          "internalType": "address",
          "name": "previousOwner",
          "type": "address"
        },
        {
          "indexed": true,
          "internalType": "address",
          "name": "newOwner",
          "type": "address"
        }
      ],
      "name": "OwnershipTransferred",
      "type": "event"
    },
    {
      "anonymous": false,
      "inputs": [
        {
          "indexed": true,
          "internalType": "uint256",
          "name": "hireId",
          "type": "uint256"
        },
        {
          "indexed": false,
          "internalType": "uint256",
          "name": "profileId",
          "type": "uint256"
        },
        {
          "indexed": false,
          "internalType": "address",
          "name": "hirer",
          "type": "address"
        },
        {
          "indexed": false,
          "internalType": "uint256",
          "name": "amount",
          "type": "uint256"
        }
      ],
      "name": "PlayerHired",
      "type": "event"
    },
    {
      "anonymous": false,
      "inputs": [
        {
          "indexed": true,
          "internalType": "uint256",
          "name": "postId",
          "type": "uint256"
        },
        {
          "indexed": false,
          "internalType": "address",
          "name": "buyer",
          "type": "address"
        },
        {
          "indexed": false,
          "internalType": "uint256",
          "name": "price",
          "type": "uint256"
        }
      ],
      "name": "PostBought",
      "type": "event"
    },
    {
      "anonymous": false,
      "inputs": [
        {
          "indexed": true,
          "internalType": "uint256",
          "name": "postId",
          "type": "uint256"
        },
        {
          "indexed": false,
          "internalType": "address",
          "name": "buyer",
          "type": "address"
        },
        {
          "indexed": false,
          "internalType": "uint256",
          "name": "priceInPostToken",
          "type": "uint256"
        }
      ],
      "name": "PostBoughtWithPostToken",
      "type": "event"
    },
    {
      "anonymous": false,
      "inputs": [
        {
          "indexed": true,
          "internalType": "uint256",
          "name": "postId",
          "type": "uint256"
        },
        {
          "indexed": false,
          "internalType": "uint256",
          "name": "profileId",
          "type": "uint256"
        },
        {
          "indexed": false,
          "internalType": "address",
          "name": "postToken",
          "type": "address"
        }
      ],
      "name": "PostCreated",
      "type": "event"
    },
    {
      "anonymous": false,
      "inputs": [
        {
          "indexed": true,
          "internalType": "uint256",
          "name": "postId",
          "type": "uint256"
        },
        {
          "indexed": false,
          "internalType": "uint256",
          "name": "price",
          "type": "uint256"
        }
      ],
      "name": "PostForSale",
      "type": "event"
    },
    {
      "anonymous": false,
      "inputs": [
        {
          "indexed": true,
          "internalType": "uint256",
          "name": "postId",
          "type": "uint256"
        },
        {
          "indexed": true,
          "internalType": "address",
          "name": "postToken",
          "type": "address"
        },
        {
          "indexed": false,
          "internalType": "uint256",
          "name": "priceInPostToken",
          "type": "uint256"
        }
      ],
      "name": "PostForSaleWithPostToken",
      "type": "event"
    },
    {
      "anonymous": false,
      "inputs": [
        {
          "indexed": true,
          "internalType": "uint256",
          "name": "postId",
          "type": "uint256"
        },
        {
          "indexed": false,
          "internalType": "address",
          "name": "liker",
          "type": "address"
        }
      ],
      "name": "PostLiked",
      "type": "event"
    },
    {
      "anonymous": false,
      "inputs": [
        {
          "indexed": true,
          "internalType": "uint256",
          "name": "postId",
          "type": "uint256"
        },
        {
          "indexed": false,
          "internalType": "address",
          "name": "tipper",
          "type": "address"
        },
        {
          "indexed": false,
          "internalType": "uint256",
          "name": "amount",
          "type": "uint256"
        }
      ],
      "name": "PostTipped",
      "type": "event"
    },
    {
      "anonymous": false,
      "inputs": [
        {
          "indexed": true,
          "internalType": "uint256",
          "name": "postId",
          "type": "uint256"
        },
        {
          "indexed": false,
          "internalType": "address",
          "name": "buyer",
          "type": "address"
        },
        {
          "indexed": false,
          "internalType": "uint256",
          "name": "amount",
          "type": "uint256"
        },
        {
          "indexed": false,
          "internalType": "uint256",
          "name": "totalCost",
          "type": "uint256"
        }
      ],
      "name": "PostTokenBought",
      "type": "event"
    },
    {
      "anonymous": false,
      "inputs": [
        {
          "indexed": true,
          "internalType": "uint256",
          "name": "postId",
          "type": "uint256"
        },
        {
          "indexed": false,
          "internalType": "uint256",
          "name": "tokenPrice",
          "type": "uint256"
        },
        {
          "indexed": false,
          "internalType": "uint256",
          "name": "amount",
          "type": "uint256"
        }
      ],
      "name": "PostTokenForSale",
      "type": "event"
    },
    {
      "anonymous": false,
      "inputs": [
        {
          "indexed": true,
          "internalType": "uint256",
          "name": "profileId",
          "type": "uint256"
        },
        {
          "indexed": false,
          "internalType": "address",
          "name": "owner",
          "type": "address"
        }
      ],
      "name": "ProfileCreated",
      "type": "event"
    },
    {
      "anonymous": false,
      "inputs": [
        {
          "indexed": true,
          "internalType": "address",
          "name": "from",
          "type": "address"
        },
        {
          "indexed": true,
          "internalType": "address",
          "name": "to",
          "type": "address"
        },
        {
          "indexed": true,
          "internalType": "uint256",
          "name": "tokenId",
          "type": "uint256"
        }
      ],
      "name": "Transfer",
      "type": "event"
    },
    {
      "inputs": [
        {
          "internalType": "uint256",
          "name": "_postId",
          "type": "uint256"
        },
        {
          "internalType": "string",
          "name": "_contentCID",
          "type": "string"
        }
      ],
      "name": "addComment",
      "outputs": [],
      "stateMutability": "nonpayable",
      "type": "function"
    },
    {
      "inputs": [
        {
          "internalType": "address",
          "name": "to",
          "type": "address"
        },
        {
          "internalType": "uint256",
          "name": "tokenId",
          "type": "uint256"
        }
      ],
      "name": "approve",
      "outputs": [],
      "stateMutability": "nonpayable",
      "type": "function"
    },
    {
      "inputs": [
        {
          "internalType": "address",
          "name": "owner",
          "type": "address"
        }
      ],
      "name": "balanceOf",
      "outputs": [
        {
          "internalType": "uint256",
          "name": "",
          "type": "uint256"
        }
      ],
      "stateMutability": "view",
      "type": "function"
    },
    {
      "inputs": [
        {
          "internalType": "uint256",
          "name": "_postId",
          "type": "uint256"
        }
      ],
      "name": "buyPost",
      "outputs": [],
      "stateMutability": "nonpayable",
      "type": "function"
    },
    {
      "inputs": [
        {
          "internalType": "uint256",
          "name": "_postId",
          "type": "uint256"
        },
        {
          "internalType": "uint256",
          "name": "_amount",
          "type": "uint256"
        }
      ],
      "name": "buyPostTokens",
      "outputs": [],
      "stateMutability": "nonpayable",
      "type": "function"
    },
    {
      "inputs": [
        {
          "internalType": "uint256",
          "name": "_postId",
          "type": "uint256"
        }
      ],
      "name": "buyPostWithPostToken",
      "outputs": [],
      "stateMutability": "nonpayable",
      "type": "function"
    },
    {
      "inputs": [],
      "name": "commentCount",
      "outputs": [
        {
          "internalType": "uint256",
          "name": "",
          "type": "uint256"
        }
      ],
      "stateMutability": "view",
      "type": "function"
    },
    {
      "inputs": [
        {
          "internalType": "uint256",
          "name": "",
          "type": "uint256"
        }
      ],
      "name": "comments",
      "outputs": [
        {
          "internalType": "uint256",
          "name": "id",
          "type": "uint256"
        },
        {
          "internalType": "uint256",
          "name": "postId",
          "type": "uint256"
        },
        {
          "internalType": "address",
          "name": "author",
          "type": "address"
        },
        {
          "internalType": "string",
          "name": "contentCID",
          "type": "string"
        },
        {
          "internalType": "uint256",
          "name": "timestamp",
          "type": "uint256"
        }
      ],
      "stateMutability": "view",
      "type": "function"
    },
    {
      "inputs": [
        {
          "internalType": "uint256",
          "name": "_hireId",
          "type": "uint256"
        },
        {
          "internalType": "address",
          "name": "_streamer",
          "type": "address"
        }
      ],
      "name": "completeHire",
      "outputs": [],
      "stateMutability": "nonpayable",
      "type": "function"
    },
    {
      "inputs": [
        {
          "internalType": "uint256",
          "name": "_profileId",
          "type": "uint256"
        },
        {
          "internalType": "string",
          "name": "_contentCID",
          "type": "string"
        },
        {
          "internalType": "string",
          "name": "_tokenName",
          "type": "string"
        },
        {
          "internalType": "string",
          "name": "_tokenSymbol",
          "type": "string"
        }
      ],
      "name": "createPost",
      "outputs": [],
      "stateMutability": "nonpayable",
      "type": "function"
    },
    {
      "inputs": [
        {
          "internalType": "string",
          "name": "_name",
          "type": "string"
        },
        {
          "internalType": "string",
          "name": "_avatarCID",
          "type": "string"
        },
        {
          "internalType": "string",
          "name": "_bioCID",
          "type": "string"
        }
      ],
      "name": "createProfile",
      "outputs": [],
      "stateMutability": "nonpayable",
      "type": "function"
    },
    {
      "inputs": [
        {
          "internalType": "uint256",
          "name": "tokenId",
          "type": "uint256"
        }
      ],
      "name": "getApproved",
      "outputs": [
        {
          "internalType": "address",
          "name": "",
          "type": "address"
        }
      ],
      "stateMutability": "view",
      "type": "function"
    },
    {
      "inputs": [
        {
          "internalType": "uint256",
          "name": "_commentId",
          "type": "uint256"
        }
      ],
      "name": "getComment",
      "outputs": [
        {
          "components": [
            {
              "internalType": "uint256",
              "name": "id",
              "type": "uint256"
            },
            {
              "internalType": "uint256",
              "name": "postId",
              "type": "uint256"
            },
            {
              "internalType": "address",
              "name": "author",
              "type": "address"
            },
            {
              "internalType": "string",
              "name": "contentCID",
              "type": "string"
            },
            {
              "internalType": "uint256",
              "name": "timestamp",
              "type": "uint256"
            }
          ],
          "internalType": "struct SocialFiProfile.Comment",
          "name": "",
          "type": "tuple"
        }
      ],
      "stateMutability": "view",
      "type": "function"
    },
    {
      "inputs": [
        {
          "internalType": "uint256",
          "name": "_hireId",
          "type": "uint256"
        }
      ],
      "name": "getHire",
      "outputs": [
        {
          "components": [
            {
              "internalType": "uint256",
              "name": "id",
              "type": "uint256"
            },
            {
              "internalType": "uint256",
              "name": "profileId",
              "type": "uint256"
            },
            {
              "internalType": "address",
              "name": "hirer",
              "type": "address"
            },
            {
              "internalType": "uint256",
              "name": "duration",
              "type": "uint256"
            },
            {
              "internalType": "uint256",
              "name": "amount",
              "type": "uint256"
            },
            {
              "internalType": "uint256",
              "name": "createdAt",
              "type": "uint256"
            },
            {
              "internalType": "bool",
              "name": "completed",
              "type": "bool"
            }
          ],
          "internalType": "struct SocialFiProfile.Hire",
          "name": "",
          "type": "tuple"
        }
      ],
      "stateMutability": "view",
      "type": "function"
    },
    {
      "inputs": [
        {
          "internalType": "uint256",
          "name": "_postId",
          "type": "uint256"
        }
      ],
      "name": "getPost",
      "outputs": [
        {
          "components": [
            {
              "internalType": "uint256",
              "name": "id",
              "type": "uint256"
            },
            {
              "internalType": "uint256",
              "name": "profileId",
              "type": "uint256"
            },
            {
              "internalType": "string",
              "name": "contentCID",
              "type": "string"
            },
            {
              "internalType": "uint256",
              "name": "timestamp",
              "type": "uint256"
            },
            {
              "internalType": "uint256",
              "name": "likeCount",
              "type": "uint256"
            },
            {
              "internalType": "uint256",
              "name": "commentCount",
              "type": "uint256"
            },
            {
              "internalType": "uint256",
              "name": "tipAmount",
              "type": "uint256"
            },
            {
              "internalType": "bool",
              "name": "isForSale",
              "type": "bool"
            },
            {
              "internalType": "uint256",
              "name": "price",
              "type": "uint256"
            },
            {
              "internalType": "bool",
              "name": "isDeleted",
              "type": "bool"
            },
            {
              "internalType": "address",
              "name": "postToken",
              "type": "address"
            },
            {
              "internalType": "uint256",
              "name": "tokenPrice",
              "type": "uint256"
            },
            {
              "internalType": "uint256",
              "name": "tokensForSale",
              "type": "uint256"
            },
            {
              "internalType": "bool",
              "name": "isForSaleInPostToken",
              "type": "bool"
            },
            {
              "internalType": "uint256",
              "name": "priceInPostToken",
              "type": "uint256"
            }
          ],
          "internalType": "struct SocialFiProfile.Post",
          "name": "",
          "type": "tuple"
        }
      ],
      "stateMutability": "view",
      "type": "function"
    },
    {
      "inputs": [
        {
          "internalType": "uint256",
          "name": "_profileId",
          "type": "uint256"
        }
      ],
      "name": "getProfile",
      "outputs": [
        {
          "components": [
            {
              "internalType": "uint256",
              "name": "id",
              "type": "uint256"
            },
            {
              "internalType": "address",
              "name": "owner",
              "type": "address"
            },
            {
              "internalType": "string",
              "name": "name",
              "type": "string"
            },
            {
              "internalType": "string",
              "name": "avatarCID",
              "type": "string"
            },
            {
              "internalType": "string",
              "name": "bioCID",
              "type": "string"
            },
            {
              "internalType": "uint256",
              "name": "createdAt",
              "type": "uint256"
            },
            {
              "internalType": "uint256",
              "name": "socialTokenBalance",
              "type": "uint256"
            },
            {
              "internalType": "uint256",
              "name": "totalEarned",
              "type": "uint256"
            },
            {
              "internalType": "uint256",
              "name": "totalHires",
              "type": "uint256"
            }
          ],
          "internalType": "struct SocialFiProfile.Profile",
          "name": "",
          "type": "tuple"
        }
      ],
      "stateMutability": "view",
      "type": "function"
    },
    {
      "inputs": [
        {
          "internalType": "uint256",
          "name": "_topN",
          "type": "uint256"
        }
      ],
      "name": "getTopPlayers",
      "outputs": [
        {
          "components": [
            {
              "internalType": "uint256",
              "name": "id",
              "type": "uint256"
            },
            {
              "internalType": "address",
              "name": "owner",
              "type": "address"
            },
            {
              "internalType": "string",
              "name": "name",
              "type": "string"
            },
            {
              "internalType": "string",
              "name": "avatarCID",
              "type": "string"
            },
            {
              "internalType": "string",
              "name": "bioCID",
              "type": "string"
            },
            {
              "internalType": "uint256",
              "name": "createdAt",
              "type": "uint256"
            },
            {
              "internalType": "uint256",
              "name": "socialTokenBalance",
              "type": "uint256"
            },
            {
              "internalType": "uint256",
              "name": "totalEarned",
              "type": "uint256"
            },
            {
              "internalType": "uint256",
              "name": "totalHires",
              "type": "uint256"
            }
          ],
          "internalType": "struct SocialFiProfile.Profile[]",
          "name": "",
          "type": "tuple[]"
        }
      ],
      "stateMutability": "view",
      "type": "function"
    },
    {
      "inputs": [],
      "name": "hireCount",
      "outputs": [
        {
          "internalType": "uint256",
          "name": "",
          "type": "uint256"
        }
      ],
      "stateMutability": "view",
      "type": "function"
    },
    {
      "inputs": [
        {
          "internalType": "uint256",
          "name": "_profileId",
          "type": "uint256"
        },
        {
          "internalType": "uint256",
          "name": "_duration",
          "type": "uint256"
        },
        {
          "internalType": "uint256",
          "name": "_ratePerHour",
          "type": "uint256"
        }
      ],
      "name": "hirePlayer",
      "outputs": [],
      "stateMutability": "nonpayable",
      "type": "function"
    },
    {
      "inputs": [
        {
          "internalType": "uint256",
          "name": "",
          "type": "uint256"
        }
      ],
      "name": "hires",
      "outputs": [
        {
          "internalType": "uint256",
          "name": "id",
          "type": "uint256"
        },
        {
          "internalType": "uint256",
          "name": "profileId",
          "type": "uint256"
        },
        {
          "internalType": "address",
          "name": "hirer",
          "type": "address"
        },
        {
          "internalType": "uint256",
          "name": "duration",
          "type": "uint256"
        },
        {
          "internalType": "uint256",
          "name": "amount",
          "type": "uint256"
        },
        {
          "internalType": "uint256",
          "name": "createdAt",
          "type": "uint256"
        },
        {
          "internalType": "bool",
          "name": "completed",
          "type": "bool"
        }
      ],
      "stateMutability": "view",
      "type": "function"
    },
    {
      "inputs": [
        {
          "internalType": "address",
          "name": "owner",
          "type": "address"
        },
        {
          "internalType": "address",
          "name": "operator",
          "type": "address"
        }
      ],
      "name": "isApprovedForAll",
      "outputs": [
        {
          "internalType": "bool",
          "name": "",
          "type": "bool"
        }
      ],
      "stateMutability": "view",
      "type": "function"
    },
    {
      "inputs": [
        {
          "internalType": "uint256",
          "name": "_postId",
          "type": "uint256"
        }
      ],
      "name": "likePost",
      "outputs": [],
      "stateMutability": "nonpayable",
      "type": "function"
    },
    {
      "inputs": [],
      "name": "name",
      "outputs": [
        {
          "internalType": "string",
          "name": "",
          "type": "string"
        }
      ],
      "stateMutability": "view",
      "type": "function"
    },
    {
      "inputs": [],
      "name": "owner",
      "outputs": [
        {
          "internalType": "address",
          "name": "",
          "type": "address"
        }
      ],
      "stateMutability": "view",
      "type": "function"
    },
    {
      "inputs": [
        {
          "internalType": "uint256",
          "name": "tokenId",
          "type": "uint256"
        }
      ],
      "name": "ownerOf",
      "outputs": [
        {
          "internalType": "address",
          "name": "",
          "type": "address"
        }
      ],
      "stateMutability": "view",
      "type": "function"
    },
    {
      "inputs": [],
      "name": "postCount",
      "outputs": [
        {
          "internalType": "uint256",
          "name": "",
          "type": "uint256"
        }
      ],
      "stateMutability": "view",
      "type": "function"
    },
    {
      "inputs": [
        {
          "internalType": "uint256",
          "name": "",
          "type": "uint256"
        }
      ],
      "name": "posts",
      "outputs": [
        {
          "internalType": "uint256",
          "name": "id",
          "type": "uint256"
        },
        {
          "internalType": "uint256",
          "name": "profileId",
          "type": "uint256"
        },
        {
          "internalType": "string",
          "name": "contentCID",
          "type": "string"
        },
        {
          "internalType": "uint256",
          "name": "timestamp",
          "type": "uint256"
        },
        {
          "internalType": "uint256",
          "name": "likeCount",
          "type": "uint256"
        },
        {
          "internalType": "uint256",
          "name": "commentCount",
          "type": "uint256"
        },
        {
          "internalType": "uint256",
          "name": "tipAmount",
          "type": "uint256"
        },
        {
          "internalType": "bool",
          "name": "isForSale",
          "type": "bool"
        },
        {
          "internalType": "uint256",
          "name": "price",
          "type": "uint256"
        },
        {
          "internalType": "bool",
          "name": "isDeleted",
          "type": "bool"
        },
        {
          "internalType": "address",
          "name": "postToken",
          "type": "address"
        },
        {
          "internalType": "uint256",
          "name": "tokenPrice",
          "type": "uint256"
        },
        {
          "internalType": "uint256",
          "name": "tokensForSale",
          "type": "uint256"
        },
        {
          "internalType": "bool",
          "name": "isForSaleInPostToken",
          "type": "bool"
        },
        {
          "internalType": "uint256",
          "name": "priceInPostToken",
          "type": "uint256"
        }
      ],
      "stateMutability": "view",
      "type": "function"
    },
    {
      "inputs": [],
      "name": "profileCount",
      "outputs": [
        {
          "internalType": "uint256",
          "name": "",
          "type": "uint256"
        }
      ],
      "stateMutability": "view",
      "type": "function"
    },
    {
      "inputs": [
        {
          "internalType": "uint256",
          "name": "",
          "type": "uint256"
        }
      ],
      "name": "profiles",
      "outputs": [
        {
          "internalType": "uint256",
          "name": "id",
          "type": "uint256"
        },
        {
          "internalType": "address",
          "name": "owner",
          "type": "address"
        },
        {
          "internalType": "string",
          "name": "name",
          "type": "string"
        },
        {
          "internalType": "string",
          "name": "avatarCID",
          "type": "string"
        },
        {
          "internalType": "string",
          "name": "bioCID",
          "type": "string"
        },
        {
          "internalType": "uint256",
          "name": "createdAt",
          "type": "uint256"
        },
        {
          "internalType": "uint256",
          "name": "socialTokenBalance",
          "type": "uint256"
        },
        {
          "internalType": "uint256",
          "name": "totalEarned",
          "type": "uint256"
        },
        {
          "internalType": "uint256",
          "name": "totalHires",
          "type": "uint256"
        }
      ],
      "stateMutability": "view",
      "type": "function"
    },
    {
      "inputs": [],
      "name": "renounceOwnership",
      "outputs": [],
      "stateMutability": "nonpayable",
      "type": "function"
    },
    {
      "inputs": [
        {
          "internalType": "address",
          "name": "from",
          "type": "address"
        },
        {
          "internalType": "address",
          "name": "to",
          "type": "address"
        },
        {
          "internalType": "uint256",
          "name": "tokenId",
          "type": "uint256"
        }
      ],
      "name": "safeTransferFrom",
      "outputs": [],
      "stateMutability": "nonpayable",
      "type": "function"
    },
    {
      "inputs": [
        {
          "internalType": "address",
          "name": "from",
          "type": "address"
        },
        {
          "internalType": "address",
          "name": "to",
          "type": "address"
        },
        {
          "internalType": "uint256",
          "name": "tokenId",
          "type": "uint256"
        },
        {
          "internalType": "bytes",
          "name": "data",
          "type": "bytes"
        }
      ],
      "name": "safeTransferFrom",
      "outputs": [],
      "stateMutability": "nonpayable",
      "type": "function"
    },
    {
      "inputs": [
        {
          "internalType": "uint256",
          "name": "_postId",
          "type": "uint256"
        },
        {
          "internalType": "uint256",
          "name": "_price",
          "type": "uint256"
        }
      ],
      "name": "sellPost",
      "outputs": [],
      "stateMutability": "nonpayable",
      "type": "function"
    },
    {
      "inputs": [
        {
          "internalType": "uint256",
          "name": "_postId",
          "type": "uint256"
        },
        {
          "internalType": "uint256",
          "name": "_priceInPostToken",
          "type": "uint256"
        }
      ],
      "name": "sellPostWithPostToken",
      "outputs": [],
      "stateMutability": "nonpayable",
      "type": "function"
    },
    {
      "inputs": [
        {
          "internalType": "address",
          "name": "operator",
          "type": "address"
        },
        {
          "internalType": "bool",
          "name": "approved",
          "type": "bool"
        }
      ],
      "name": "setApprovalForAll",
      "outputs": [],
      "stateMutability": "nonpayable",
      "type": "function"
    },
    {
      "inputs": [
        {
          "internalType": "uint256",
          "name": "_postId",
          "type": "uint256"
        },
        {
          "internalType": "uint256",
          "name": "_tokenPrice",
          "type": "uint256"
        },
        {
          "internalType": "uint256",
          "name": "_amount",
          "type": "uint256"
        }
      ],
      "name": "setPostTokenForSale",
      "outputs": [],
      "stateMutability": "nonpayable",
      "type": "function"
    },
    {
      "inputs": [
        {
          "internalType": "bytes4",
          "name": "interfaceId",
          "type": "bytes4"
        }
      ],
      "name": "supportsInterface",
      "outputs": [
        {
          "internalType": "bool",
          "name": "",
          "type": "bool"
        }
      ],
      "stateMutability": "view",
      "type": "function"
    },
    {
      "inputs": [],
      "name": "symbol",
      "outputs": [
        {
          "internalType": "string",
          "name": "",
          "type": "string"
        }
      ],
      "stateMutability": "view",
      "type": "function"
    },
    {
      "inputs": [
        {
          "internalType": "uint256",
          "name": "_postId",
          "type": "uint256"
        },
        {
          "internalType": "uint256",
          "name": "_amount",
          "type": "uint256"
        }
      ],
      "name": "tipPost",
      "outputs": [],
      "stateMutability": "nonpayable",
      "type": "function"
    },
    {
      "inputs": [
        {
          "internalType": "uint256",
          "name": "tokenId",
          "type": "uint256"
        }
      ],
      "name": "tokenURI",
      "outputs": [
        {
          "internalType": "string",
          "name": "",
          "type": "string"
        }
      ],
      "stateMutability": "view",
      "type": "function"
    },
    {
      "inputs": [
        {
          "internalType": "address",
          "name": "from",
          "type": "address"
        },
        {
          "internalType": "address",
          "name": "to",
          "type": "address"
        },
        {
          "internalType": "uint256",
          "name": "tokenId",
          "type": "uint256"
        }
      ],
      "name": "transferFrom",
      "outputs": [],
      "stateMutability": "nonpayable",
      "type": "function"
    },
    {
      "inputs": [
        {
          "internalType": "address",
          "name": "newOwner",
          "type": "address"
        }
      ],
      "name": "transferOwnership",
      "outputs": [],
      "stateMutability": "nonpayable",
      "type": "function"
    },
    {
      "inputs": [],
      "name": "u2uToken",
      "outputs": [
        {
          "internalType": "contract IERC20",
          "name": "",
          "type": "address"
        }
      ],
      "stateMutability": "view",
      "type": "function"
    }
  ],
  "bytecode": "0x6080604052346104085761439a6020813803918261001c8161040d565b93849283398101031261040857516001600160a01b0381169081900361040857610046604061040d565b90600c82526b14dbd8da585b119a541bdcdd60a21b602083015261006a604061040d565b600381526205346560ec1b602082015282519091906001600160401b03811161031357600054600181811c911680156103fe575b60208210146102f357601f811161039a575b506020601f82116001146103345781929394600092610329575b50508160011b916000199060031b1c1916176000555b81516001600160401b03811161031357600154600181811c91168015610309575b60208210146102f357601f811161028e575b50602092601f8211600114610229579281929360009261021e575b50508160011b916000199060031b1c1916176001555b33156102085760068054336001600160a01b03198216811790925560405191906001600160a01b03167f8be0079c531659141344cd1fd0a4f28419497f9722a3daafe3b4186f6b6457e0600080a360ff196010541660105581156101c65750600780546001600160a01b031916919091179055604051613f6790816104338239f35b62461bcd60e51b815260206004820152601560248201527f496e76616c696420746f6b656e206164647265737300000000000000000000006044820152606490fd5b631e4fbdf760e01b600052600060045260246000fd5b01519050388061012e565b601f198216936001600052806000209160005b868110610276575083600195961061025d575b505050811b01600155610144565b015160001960f88460031b161c1916905538808061024f565b9192602060018192868501518155019401920161023c565b60016000527fb10e2d527612073b26eecdfd717e6a320cf44b4afac2b0732d9fcbe2b7fa0cf6601f830160051c810191602084106102e9575b601f0160051c01905b8181106102dd5750610113565b600081556001016102d0565b90915081906102c7565b634e487b7160e01b600052602260045260246000fd5b90607f1690610101565b634e487b7160e01b600052604160045260246000fd5b0151905038806100ca565b601f1982169060008052806000209160005b81811061038257509583600195969710610369575b505050811b016000556100e0565b015160001960f88460031b161c1916905538808061035b565b9192602060018192868b015181550194019201610346565b600080527f290decd9548b62a8d60345a988386fc84ba6bc95484008f6362f93160ef3e563601f830160051c810191602084106103f4575b601f0160051c01905b8181106103e857506100b0565b600081556001016103db565b90915081906103d2565b90607f169061009e565b600080fd5b6040519190601f01601f191682016001600160401b038111838210176103135760405256fe608080604052600436101561001357600080fd5b600090813560e01c90816301ffc9a7146129be5750806306fdde03146129365780630800e30014612859578063081812fc1461281c578063095ea7b3146127345780630b1e7f831461263957806317906c2e1461261b57806323b872dd146126035780632fa67338146124e35780633b3448351461216b57806340731c2414611f6357806342842e0e14611f3957806345ff20de14611f1b578063607d73a414611d1057806362b7aa7b14611aa85780636352211e14611a7757806370a0823114611a24578063714d527e146119bb578063715018a61461195e578063725009d3146118f05780638da5cb5b146118c75780638ebb4c151461184f57806395d89b411461176c5780639841c82c146112a7578063a22cb46514611200578063a6e346e714611005578063aa7e568314610dd5578063ab851f1914610dac578063b406952014610d8e578063b88d4fde14610d27578063ba3c006714610be9578063c06585bb14610a65578063c36fe3d614610998578063c5c400221461089b578063c87b56dd14610843578063c87cacbc14610751578063e1c939de14610536578063e8f03fb2146103c3578063e985e9c514610369578063ef43acef1461034b578063f08f4f64146102ff578063f2fde38b146102755763f9ba45fd146101fa57600080fd5b3461027257602036600319011261027257604060e0916004358152600f6020522080549060018101549060018060a01b03600282015416600382015460048301549160ff600660058601549501541694604051968752602087015260408601526060850152608084015260a0830152151560c0820152f35b80fd5b50346102725760203660031901126102725761028f612a6c565b610297613457565b6001600160a01b031680156102eb57600680546001600160a01b0319811683179091556001600160a01b03167f8be0079c531659141344cd1fd0a4f28419497f9722a3daafe3b4186f6b6457e0600080a380f35b631e4fbdf760e01b82526004829052602482fd5b5034610272576020366003190112610272576103336040610347926103226131f8565b506004358152600960205220613268565b604051918291602083526020830190612cfa565b0390f35b50346102725780600319360112610272576020600854604051908152f35b5034610272576040366003190112610272576040610385612a6c565b9161038e612a87565b9260018060a01b031681526005602052209060018060a01b0316600052602052602060ff604060002054166040519015158152f35b5034610272576103d236612cca565b906103ef6103df846132fb565b6001600160a01b03163314613023565b81156104ff57828452600b60205260408420906024602060018060a01b03600985015460081c16604051928380926370a0823160e01b82523360048301525afa80156104f457849187916104bb575b501061048257827fac13ab7f96040f50e11a8acd277a4953aad002bfca7e6c27d05d0c9b6eb4e08d93600b8484600a6040970155015582519182526020820152a280f35b60405162461bcd60e51b81526020600482015260116024820152704e6f7420656e6f75676820746f6b656e7360781b6044820152606490fd5b9150506020813d6020116104ec575b816104d760209383612b5b565b810103126104e8578390513861043e565b8580fd5b3d91506104ca565b6040513d88823e3d90fd5b60405162461bcd60e51b815260206004820152600f60248201526e139bdd1a1a5b99c81d1bc81cd95b1b608a1b6044820152606490fd5b503461027257604036600319011261027257600435610553612a87565b818352600f60205260408320906001820191825485526009602052604085209060018060a01b03600183015416330361070c57600681019081549060ff82166106ce57600892600160049360ff1916179055019182546105b8600783019182546132ee565b905501805490600182018092116106ba575560075490546040516323b872dd60e01b81529260209284926001600160a01b0390911691839189918391610602913360048501612f8c565b03925af19081156106af578491610680575b50156106495760207f6788651d5f1960bd157379b30871945b85070dad99ebfb7a84e18a55c74b3c309154604051908152a280f35b60405162461bcd60e51b815260206004820152600f60248201526e151c985b9cd9995c8819985a5b1959608a1b6044820152606490fd5b6106a2915060203d6020116106a8575b61069a8183612b5b565b810190612f74565b38610614565b503d610690565b6040513d86823e3d90fd5b634e487b7160e01b87526011600452602487fd5b60405162461bcd60e51b8152602060048201526016602482015275121a5c9948185b1c9958591e4818dbdb5c1b195d195960521b6044820152606490fd5b60405162461bcd60e51b815260206004820152601f60248201527f4f6e6c792070726f66696c65206f776e65722063616e20636f6d706c657465006044820152606490fd5b50346102725760203660031901126102725760408160e09260c0835161077681612b24565b82815282602082015282858201528260608201528260808201528260a082015201526004358152600f602052206040516107af81612b24565b81549182825260018101546020830190815260018060a01b0360028301541660408401908152600383015490606085019182526004840154926080860193845260c060ff600660058801549760a08a019889520154169601951515865260405196875251602087015260018060a01b0390511660408601525160608501525160808401525160a083015251151560c0820152f35b5034610272576020366003190112610272576108606004356132fb565b5080604051610870602082612b5b565b5250610347604051610883602082612b5b565b60008152604051918291602083526020830190612a2b565b5034610272576108aa36612ce4565b906108b76103df826132fb565b811561095f57808352600b60205260408320600981015460081c6001600160a01b03169290831561092557817ff83c72c29ee051b8a3a8587b9a2aaecd01ad84612e46dd3b3a3670bd0db9621792600d83600c60209501600160ff198254161790550155604051908152a380f35b60405162461bcd60e51b8152602060048201526012602482015271141bdcdd081d1bdad95b881b9bdd081cd95d60721b6044820152606490fd5b60405162461bcd60e51b815260206004820152601160248201527005072696365206d757374206265203e203607c1b6044820152606490fd5b5034610272576020366003190112610272576004358152600960205260409020805460018201546001600160a01b0316916109d560028201612b7c565b6109e160038301612b7c565b916109ee60048201612b7c565b92610a4b600583015494610a3d600685015493610a2f60086007880154970154976040519b8c9b8c5260208c015261012060408c01526101208b0190612a2b565b9089820360608b0152612a2b565b908782036080890152612a2b565b9360a086015260c085015260e08401526101008301520390f35b503461027257610a7436612ce4565b818352600b60205260408320610a9160ff6009830154161561305f565b8115610bb9576007546040516323b872dd60e01b81529060209082906001600160a01b0316818881610ac889303360048501612f8c565b03925af1908115610bae578591610b8f575b5015610b54577f4db8afe9bce39012f1b036566400165e4630e1d714b2a6f7339a4adcdfb16c3d916001826006610b4e9401610b178482546132ee565b905501548552600960205260066040862001610b348282546132ee565b905560408051338152602081019290925290918291820190565b0390a280f35b60405162461bcd60e51b8152602060048201526013602482015272151a5c081d1c985b9cd9995c8819985a5b1959606a1b6044820152606490fd5b610ba8915060203d6020116106a85761069a8183612b5b565b38610ada565b6040513d87823e3d90fd5b60405162461bcd60e51b815260206004820152600860248201526705a65726f207469760c41b6044820152606490fd5b50346102725760203660031901126102725760085460043580821015610d2057505b610c14816131e1565b90610c226040519283612b5b565b808252601f19610c31826131e1565b01835b818110610d0957505060015b81811115610caf5782846040519182916020830160208452825180915260408401602060408360051b870101940192905b828210610c8057505050500390f35b91936001919395506020610c9f8192603f198a82030186528851612cfa565b9601920192018594939192610c71565b808452600960205260408420600019820190828211610cf557610cf09291610cd9610cea92613268565b610ce3828861323e565b528561323e565b50612feb565b610c40565b634e487b7160e01b86526011600452602486fd5b602090610d146131f8565b82828701015201610c34565b9050610c0b565b503461027257608036600319011261027257610d41612a6c565b610d49612a87565b606435916001600160401b038311610d8a5736602384011215610d8a57610d7d610d87933690602481600401359101612c75565b916044359161309a565b80f35b8380fd5b50346102725780600319360112610272576020600e54604051908152f35b50346102725780600319360112610272576007546040516001600160a01b039091168152602090f35b5034610272576040366003190112610272576004356024356001600160401b03811161100157610e09903690600401612cac565b610e14600c54612feb565b80600c5560405191610e2583612ad7565b8183526020808401858152336040808701918252606087019485524260808801908152958952600d90935291872094518555516001850155516002840180546001600160a01b0319166001600160a01b039290921691909117905551805160038401916001600160401b038211610fed57610ea08354612a9d565b601f8111610fa8575b50602090601f8311600114610f4157600494939291889183610f36575b50508160011b916000199060031b1c19161790555b51910155808252600b60205260056040832001610ef88154612feb565b9055600c54604080519182523360208301527fdb54cde47150062529bc4f2e10c2493c8ae39bc079c9c24f9e365c135098d4bb919081908101610b4e565b015190503880610ec6565b8388528188209190601f198416895b818110610f90575091600193918560049897969410610f77575b505050811b019055610edb565b015160001960f88460031b161c19169055388080610f6a565b92936020600181928786015181550195019301610f50565b83885260208820601f840160051c81019160208510610fe3575b601f0160051c01905b818110610fd85750610ea9565b888155600101610fcb565b9091508190610fc2565b634e487b7160e01b87526041600452602487fd5b8280fd5b503461027257602036600319011261027257600435600160105461102c60ff821615612f28565b60ff191617601055808252600b60205260408220600c8101805460ff16156111bb57611057836132fb565b91600d810192835491821561118657600901546040516323b872dd60e01b815290602090829060081c6001600160a01b0316818a8161109b89893360048501612f8c565b03925af190811561117b57879161115c575b5015611117577fd03356c41ffe2531cd6992a559ee0a16cd2233bd5ddb185257345542e21338c793611107936110e687899433906133fb565b805460ff191690555560408051338152602081019290925290918291820190565b0390a260ff196010541660105580f35b60405162461bcd60e51b815260206004820152601860248201527f506f7374546f6b656e207061796d656e74206661696c656400000000000000006044820152606490fd5b611175915060203d6020116106a85761069a8183612b5b565b386110ad565b6040513d89823e3d90fd5b60405162461bcd60e51b815260206004820152600d60248201526c496e76616c696420707269636560981b6044820152606490fd5b60405162461bcd60e51b815260206004820152601a60248201527f4e6f7420666f722073616c6520696e20706f737420746f6b656e0000000000006044820152606490fd5b50346102725760403660031901126102725761121a612a6c565b6024359081151590818303610d8a576001600160a01b03169182156112935761126490338552600560205260408520848652602052604085209060ff801983541691151516179055565b6040519081527f17307eab39ab6107e8899845ad3d59bd9653f200f220920489ca2b5937696c3160203392a380f35b630b61174360e31b84526004839052602484fd5b5034610272576060366003190112610272576004356001600160401b038111611768576112d8903690600401612cac565b906024356001600160401b038111611768576112f8903690600401612cac565b916044356001600160401b03811161100157611318903690600401612cac565b92611324600854612feb565b90816008556040519261133684612b3f565b828452336020808601918252604080870193845260608701948552608087019889524260a0880190815260c0880189815260e089018a81526101008a018b8152988b5260099094529189209751885592516001880180546001600160a01b0319166001600160a01b03929092169190911790559251805191949160028801916001600160401b0382116117545781906113cf8454612a9d565b601f8111611704575b50602090601f83116001146116a1578b92611696575b50508160011b916000199060031b1c19161790555b51805160038701916001600160401b0382116116825781906114258454612a9d565b601f8111611632575b50602090601f83116001146115cf578a926115c4575b50508160011b916000199060031b1c19161790555b6004850196519687516001600160401b0381116115b05761147a8254612a9d565b601f811161156b575b506020601f8211600114611505578190899a6008999a926114fa575b50508160011b916000199060031b1c19161790555b516005860155516006850155516007840155519101556008547f9f150021d8fd04eb219a39e3019273bddf99a9a2e434dd2aa8132e32ea9244b06020604051338152a280f35b01519050388061149f565b82895280892099601f1983168a5b8181106115535750916008999a9b9184600195941061153a575b505050811b0190556114b4565b015160001960f88460031b161c1916905538808061152d565b838301518d556001909c019b60209384019301611513565b82895260208920601f830160051c810191602084106115a6575b601f0160051c01905b81811061159b5750611483565b89815560010161158e565b9091508190611585565b634e487b7160e01b88526041600452602488fd5b015190503880611444565b848b52818b209250601f1984168b5b81811061161a5750908460019594939210611601575b505050811b019055611459565b015160001960f88460031b161c191690553880806115f4565b929360206001819287860151815501950193016115de565b909150838a5260208a20601f840160051c81019160208510611678575b90601f859493920160051c01905b81811061166a575061142e565b8b815584935060010161165d565b909150819061164f565b634e487b7160e01b89526041600452602489fd5b0151905038806113ee565b848c52818c209250601f1984168c5b8181106116ec57509084600195949392106116d3575b505050811b019055611403565b015160001960f88460031b161c191690553880806116c6565b929360206001819287860151815501950193016116b0565b909150838b5260208b20601f840160051c8101916020851061174a575b90601f859493920160051c01905b81811061173c57506113d8565b8c815584935060010161172f565b9091508190611721565b634e487b7160e01b8a52604160045260248afd5b5080fd5b503461027257806003193601126102725760405190806001549061178f82612a9d565b808552916001811690811561182857506001146117cb575b610347846117b781860382612b5b565b604051918291602083526020830190612a2b565b600181527fb10e2d527612073b26eecdfd717e6a320cf44b4afac2b0732d9fcbe2b7fa0cf6939250905b80821061180e575090915081016020016117b7826117a7565b9192600181602092548385880101520191019092916117f5565b60ff191660208087019190915292151560051b850190920192506117b791508390506117a7565b5034610272576020366003190112610272576040906004358152600d6020522080546001820154916118bd60018060a01b0360028301541691600461189660038301612b7c565b9101549260405195869586526020860152604085015260a0606085015260a0840190612a2b565b9060808301520390f35b50346102725780600319360112610272576006546040516001600160a01b039091168152602090f35b503461027257602036600319011261027257600435808252600b60205260046040832061192460ff6009830154161561305f565b0161192f8154612feb565b90557fcf765d6f163c9b0d832e2a94f4c8e9bffd32a2c3ca5fdbb8cc67b5fe1441f4136020604051338152a280f35b5034610272578060031936011261027257611977613457565b600680546001600160a01b0319811690915581906001600160a01b03167f8be0079c531659141344cd1fd0a4f28419497f9722a3daafe3b4186f6b6457e08280a380f35b50346102725760207f630e2de774570d3061127351ceb50b75cb6de0b66ba9382037683198f7072fd56119ed36612ce4565b6119fb6103df8395936132fb565b838552600b82528060086040872060078101600160ff198254161790550155604051908152a280f35b5034610272576020366003190112610272576001600160a01b03611a46612a6c565b168015611a63578160409160209352600383522054604051908152f35b6322718ad960e21b82526004829052602482fd5b5034610272576020366003190112610272576020611a966004356132fb565b6040516001600160a01b039091168152f35b503461027257611ab736612ce4565b6001601054611ac960ff821615612f28565b60ff1916176010558015611cdd57818352600b60205260408320600a8101549081151580611ccf575b15611c7e57670de0b6b3a7640000611b1384611b0d876132fb565b94613010565b049160018060a01b0360075416602060405180926323b872dd60e01b8252818a81611b438a893360048501612f8c565b03925af1801561117b57611b9692611b6687926020948b91611c61575b50612fae565b60018060a01b03600986015460081c1690896040518096819582946323b872dd60e01b8452339060048501612f8c565b03925af19081156104f4578691611c42575b5015611c0557600b01805490838203918211610cf557917f4c1758e5cc28ff42d56a2f5167a8f88aa9c7eca498fd6873eef018986dfc03a59391606093556040519133835260208301526040820152a260ff196010541660105580f35b60405162461bcd60e51b8152602060048201526015602482015274151bdad95b881d1c985b9cd9995c8819985a5b1959605a1b6044820152606490fd5b611c5b915060203d6020116106a85761069a8183612b5b565b38611ba8565b611c789150853d87116106a85761069a8183612b5b565b38611b60565b60405162461bcd60e51b815260206004820152602360248201527f4e6f7420666f722073616c65206f7220696e73756666696369656e7420746f6b604482015262656e7360e81b6064820152608490fd5b5082600b8201541015611af2565b60405162461bcd60e51b815260206004820152600b60248201526a416d6f756e74207a65726f60a81b6044820152606490fd5b503461027257611d1f36612cca565b828452600960205260408420600101546001600160a01b03163314611edf57611d489082613010565b918215611ea8576007546040516323b872dd60e01b8152919060209083906001600160a01b0316818881611d818a303360048501612f8c565b03925af18015610bae577f51a264f4268ed542a22198f96b6e3d76dfa1ab3146305d9a50af4e6be632b9b493611dc3611e76926060958991611e8f5750612fae565b6006611dd0600e54612feb565b80600e558860405193611de285612b24565b82855260208501908782526040860133815289870191825260808701928c8452604060a089019542875260c08a01978189528152600f602052209751885551600188015560018060a01b03905116600287019060018060a01b03166001600160601b0360a01b82541617905551600386015551600485015551600584015551151591019060ff801983541691151516179055565b600e54936040519182523360208301526040820152a280f35b611c78915060203d6020116106a85761069a8183612b5b565b60405162461bcd60e51b815260206004820152600f60248201526e125b9d985b1a59081c185e5b595b9d608a1b6044820152606490fd5b60405162461bcd60e51b815260206004820152601460248201527321b0b73737ba103434b932903cb7bab939b2b63360611b6044820152606490fd5b50346102725780600319360112610272576020600c54604051908152f35b503461027257610d87611f4b36612c20565b9060405192611f5b602085612b5b565b85845261309a565b50346102725760203660031901126102725780604051611f8281612b08565b81815281602082015260408101606090528160608201528160808201528160a08201528160c08201528160e08201528161010082015281610120820152816101408201528161016082015281610180820152816101a08201526101c001526004358152600b6020526040902060405190611ffb82612b08565b805482526001810154602083019081529061201860028201612b7c565b926040810193845260038201549160608201928352600481015460808301908152600582015460a08401908152600683015460c08501908152600784015460ff169060e0860191151582526008850154610100870190815260098601549261012088019260ff851615158452610140890194600160a01b600190039060081c168552600a880154956101608a01968752600b890154976101808b01988952600c8a015460ff16996101a08c019a15158b52600d01549a6101c081019b8c526040519e8f9e8f926020845251602084015251604083015251606082016101e09052610200820161210691612a2b565b9c516080909101525160a08d01525160c08c01525160e08b01525115156101008a015251610120890152511515610140880152516001600160a01b031661016087015251610180860152516101a08501525115156101c0840152516101e08301520390f35b5034610272576080366003190112610272576004356024356001600160401b0381116110015761219f903690600401612cac565b906044356001600160401b038111610d8a576121bf903690600401612cac565b916064356001600160401b0381116124df576121df903690600401612cac565b828552600960205260408520600101546001600160a01b031633036124a657612209600a54612feb565b9384600a5560405191610ab191828401928484106001600160401b03851117611682576122668594936122586a084595161401484a000000946060946134818939608087526080870190612a2b565b908582036020870152612a2b565b923360408201520152039085f080156106af57838552600b602081815260408088206009018054610100600160a81b03191660089590951b610100600160a81b0316949094179093558587528181528287208690558587528181528287206001018590558587525284208151600291909101916001600160401b0382116124925781906122f38454612a9d565b601f8111612442575b50602090601f83116001146123df5787926123d4575b50508160011b916000199060031b1c19161790555b818352600b60205242600360408520015533156123c0576001600160a01b036123508333613332565b166123ac57818352600b6020908152604080852060090154815193845260081c6001600160a01b0316918301919091527f479ec612f400c16ffe0e29ab35fd2726d09436492c66bd0b0b39fdff5817d01c919081908101610b4e565b6339e3563760e11b83526004839052602483fd5b633250574960e11b83526004839052602483fd5b015190503880612312565b8488528188209250601f198416885b81811061242a5750908460019594939210612411575b505050811b019055612327565b015160001960f88460031b161c19169055388080612404565b929360206001819287860151815501950193016123ee565b90915083875260208720601f840160051c81019160208510612488575b90601f859493920160051c01905b81811061247a57506122fc565b88815584935060010161246d565b909150819061245f565b634e487b7160e01b86526041600452602486fd5b60405162461bcd60e51b81526020600482015260116024820152702737ba10383937b334b6329037bbb732b960791b6044820152606490fd5b8480fd5b503461027257602036600319011261027257600435600160105461250a60ff821615612f28565b60ff191617601055808252600b60205260408220600781019060ff825416156125ca576008612538846132fb565b910180546007546040516323b872dd60e01b81529491928792909160209087906001600160a01b03168186816125738a8c3360048501612f8c565b03925af19586156125bf5787611107966125b87f3d246faee14ed5b15c0dc874215f17878e8525a9b3957dd99f17f749ead40620996110e6948891611e8f5750612fae565b33906133fb565b6040513d85823e3d90fd5b60405162461bcd60e51b8152602060048201526011602482015270506f7374206e6f7420666f722073616c6560781b6044820152606490fd5b503461027257610d8761261536612c20565b91612d81565b50346102725780600319360112610272576020600a54604051908152f35b5034610272576020366003190112610272576004358152600b60205260409020805460018201549161266d60028201612b7c565b600382015491600481015460058201546006830154600784015460ff16600885015490600986015492600a87015494600b88015496600c89015460ff1698600d0154996040519d8e809e81526020015260408d016101e090526101e08d016126d491612a2b565b60608d019b909b5260808c015260a08b015260c08a0152151560e089015261010088015260ff8116151561012088015260081c6001600160a01b031661014087015261016086015261018085015215156101a08401526101c08301520390f35b50346102725760403660031901126102725761274e612a6c565b60243561275a816132fb565b33151580612809575b806127de575b6127cb5781906001600160a01b0384811691167f8c5be1e5ebec7d5bd14f71427d1e84f3dd0314c0f7b2291e5b200ac8c7c3b9258680a4825260046020526040822080546001600160a01b0319166001600160a01b0390921691909117905580f35b63a9fbf51f60e01b845233600452602484fd5b506001600160a01b038116845260056020908152604080862033875290915284205460ff1615612769565b506001600160a01b038116331415612763565b50346102725760203660031901126102725760209060043561283d816132fb565b50815260048252604060018060a01b0391205416604051908152f35b503461027257602036600319011261027257806040916080835161287c81612ad7565b828152826020820152828582015260608082015201526004358152600d602052206040516128a981612ad7565b8154815260018201546020820190815260028301546001600160a01b031660408301908152909261292b9060046128e260038301612b7c565b9160608601928352015492608085019384526040519586956020875251602087015251604086015260018060a01b0390511660608501525160a0608085015260c0840190612a2b565b905160a08301520390f35b5034610272578060031936011261027257604051908080549061295882612a9d565b8085529160018116908115611828575060011461297f57610347846117b781860382612b5b565b80805260208120939250905b8082106129a4575090915081016020016117b7826117a7565b91926001816020925483858801015201910190929161298b565b9050346117685760203660031901126117685760043563ffffffff60e01b811680910361100157602092506380ac58cd60e01b8114908115612a1a575b8115612a09575b5015158152f35b6301ffc9a760e01b14905038612a02565b635b5e139f60e01b811491506129fb565b919082519283825260005b848110612a57575050826000602080949584010152601f8019910116010190565b80602080928401015182828601015201612a36565b600435906001600160a01b0382168203612a8257565b600080fd5b602435906001600160a01b0382168203612a8257565b90600182811c92168015612acd575b6020831014612ab757565b634e487b7160e01b600052602260045260246000fd5b91607f1691612aac565b60a081019081106001600160401b03821117612af257604052565b634e487b7160e01b600052604160045260246000fd5b6101e081019081106001600160401b03821117612af257604052565b60e081019081106001600160401b03821117612af257604052565b61012081019081106001600160401b03821117612af257604052565b90601f801991011681019081106001600160401b03821117612af257604052565b9060405191826000825492612b9084612a9d565b8084529360018116908115612bfe5750600114612bb7575b50612bb592500383612b5b565b565b90506000929192526020600020906000915b818310612be2575050906020612bb59282010138612ba8565b6020919350806001915483858901015201910190918492612bc9565b905060209250612bb594915060ff191682840152151560051b82010138612ba8565b6060906003190112612a82576004356001600160a01b0381168103612a8257906024356001600160a01b0381168103612a82579060443590565b6001600160401b038111612af257601f01601f191660200190565b929192612c8182612c5a565b91612c8f6040519384612b5b565b829481845281830111612a82578281602093846000960137010152565b9080601f83011215612a8257816020612cc793359101612c75565b90565b6060906003190112612a8257600435906024359060443590565b6040906003190112612a82576004359060243590565b908151815260018060a01b03602083015116602082015261010080612d5a612d48612d3660408701516101206040880152610120870190612a2b565b60608701518682036060880152612a2b565b60808601518582036080870152612a2b565b9360a081015160a085015260c081015160c085015260e081015160e0850152015191015290565b6001600160a01b0390911691908215612f12576000828152600260205260408120546001600160a01b0316938391859033151580612e7a575b507fddf252ad1be2c89b69c2b068fc378daa952ba7f163c4a11628f55a4df523b3ef9082612e45575b83815260036020526040812060018154019055848152600260205260408120846001600160601b0360a01b82541617905580a46001600160a01b0316808303612e2b57505050565b6364283d7b60e01b60005260045260245260445260646000fd5b600085815260046020526040902080546001600160a01b03191690558281526003602052604081208054600019019055612de3565b915091925080612ec3575b15612e94579084849238612dba565b839085612ead57602491637e27328960e01b8252600452fd5b60449163177e802f60e01b825233600452602452fd5b503385148015612ef1575b80612e855750838152600460205260408120546001600160a01b03163314612e85565b5084815260056020908152604080832033845290915281205460ff16612ece565b633250574960e11b600052600060045260246000fd5b15612f2f57565b60405162461bcd60e51b815260206004820152601f60248201527f5265656e7472616e637947756172643a207265656e7472616e742063616c6c006044820152606490fd5b90816020910312612a8257518015158103612a825790565b6001600160a01b03918216815291166020820152604081019190915260600190565b15612fb557565b60405162461bcd60e51b815260206004820152600e60248201526d14185e5b595b9d0819985a5b195960921b6044820152606490fd5b6000198114612ffa5760010190565b634e487b7160e01b600052601160045260246000fd5b81810292918115918404141715612ffa57565b1561302a57565b60405162461bcd60e51b815260206004820152600d60248201526c2737ba1027232a1037bbb732b960991b6044820152606490fd5b1561306657565b60405162461bcd60e51b815260206004820152600c60248201526b141bdcdd0819195b195d195960a21b6044820152606490fd5b92916130a7818386612d81565b813b6130b4575b50505050565b604051630a85bd0160e11b81523360048201526001600160a01b03948516602482015260448101919091526080606482015292169190602090829081906130ff906084830190612a2b565b03816000865af1809160009161319e575b509061316957503d15613162573d61312781612c5a565b906131356040519283612b5b565b81523d6000602083013e5b8051908161315d5782633250574960e11b60005260045260246000fd5b602001fd5b6060613140565b6001600160e01b03191663757a42ff60e11b0161318a5750388080806130ae565b633250574960e11b60005260045260246000fd5b6020813d6020116131d9575b816131b760209383612b5b565b810103126117685751906001600160e01b031982168203610272575038613110565b3d91506131aa565b6001600160401b038111612af25760051b60200190565b6040519061320582612b3f565b60006101008382815282602082015260606040820152606080820152606060808201528260a08201528260c08201528260e08201520152565b80518210156132525760209160051b010190565b634e487b7160e01b600052603260045260246000fd5b9060405161327581612b3f565b8254815260018301546001600160a01b03166020820152918290610100906008906132a260028201612b7c565b60408501526132b360038201612b7c565b60608501526132c460048201612b7c565b6080850152600581015460a0850152600681015460c0850152600781015460e08501520154910152565b91908201809211612ffa57565b6000818152600260205260409020546001600160a01b031690811561331e575090565b637e27328960e01b60005260045260246000fd5b6000828152600260205260409020546001600160a01b03169190826133c4575b6001600160a01b0316806133aa575b8160005260026020526040600020816001600160601b0360a01b825416179055827fddf252ad1be2c89b69c2b068fc378daa952ba7f163c4a11628f55a4df523b3ef600080a490565b806000526003602052604060002060018154019055613361565b600082815260046020526040902080546001600160a01b031916905582600052600360205260406000206000198154019055613352565b919291906001600160a01b03811615612f12576001600160a01b0390613422908590613332565b16908161343e5783637e27328960e01b60005260045260246000fd5b919290916001600160a01b0316808303612e2b57505050565b6006546001600160a01b0316330361346b57565b63118cdaa760e01b6000523360045260246000fdfe6080604052346103c757610ab180380380610019816103cc565b9283398101906080818303126103c75780516001600160401b0381116103c757826100459183016103f1565b602082015190926001600160401b0382116103c7576100659183016103f1565b604082015190916001600160a01b038216918290036103c7576060015183516001600160401b0381116102d057600354600181811c911680156103bd575b60208210146102b057601f8111610358575b50602094601f82116001146102f1579481929394956000926102e6575b50508160011b916000199060031b1c1916176003555b82516001600160401b0381116102d057600454600181811c911680156102c6575b60208210146102b057601f811161024b575b506020601f82116001146101e457819293946000926101d9575b50508160011b916000199060031b1c1916176004555b81156101c3576002548181018091116101ad576002557fddf252ad1be2c89b69c2b068fc378daa952ba7f163c4a11628f55a4df523b3ef602060009284845283825260408420818154019055604051908152a3604051610654908161045d8239f35b634e487b7160e01b600052601160045260246000fd5b63ec442f0560e01b600052600060045260246000fd5b015190503880610135565b601f198216906004600052806000209160005b8181106102335750958360019596971061021a575b505050811b0160045561014b565b015160001960f88460031b161c1916905538808061020c565b9192602060018192868b0151815501940192016101f7565b60046000527f8a35acfbc15ff81a39ae7d344fd709f28e8600b4aa8c65c6b64bfe7fe36bd19b601f830160051c810191602084106102a6575b601f0160051c01905b81811061029a575061011b565b6000815560010161028d565b9091508190610284565b634e487b7160e01b600052602260045260246000fd5b90607f1690610109565b634e487b7160e01b600052604160045260246000fd5b0151905038806100d2565b601f198216956003600052806000209160005b88811061034057508360019596979810610327575b505050811b016003556100e8565b015160001960f88460031b161c19169055388080610319565b91926020600181928685015181550194019201610304565b60036000527fc2575a0e9e593c00f959f8c92f12db2869c3395a3b0502d05e2516446f71f85b601f830160051c810191602084106103b3575b601f0160051c01905b8181106103a757506100b5565b6000815560010161039a565b9091508190610391565b90607f16906100a3565b600080fd5b6040519190601f01601f191682016001600160401b038111838210176102d057604052565b81601f820112156103c7578051906001600160401b0382116102d057610420601f8301601f19166020016103cc565b92828452602083830101116103c75760005b82811061044757505060206000918301015290565b8060208092840101518282870101520161043256fe608080604052600436101561001357600080fd5b60003560e01c90816306fdde031461041157508063095ea7b31461038b57806318160ddd1461036d57806323b872dd14610280578063313ce5671461026457806370a082311461022a57806395d89b4114610109578063a9059cbb146100d85763dd62ed3e1461008257600080fd5b346100d35760403660031901126100d35761009b61052d565b6100a3610543565b6001600160a01b039182166000908152600160209081526040808320949093168252928352819020549051908152f35b600080fd5b346100d35760403660031901126100d3576100fe6100f461052d565b6024359033610559565b602060405160018152f35b346100d35760003660031901126100d35760405160006004548060011c90600181168015610220575b60208310811461020c578285529081156101f05750600114610199575b50819003601f01601f191681019067ffffffffffffffff8211818310176101835761017f829182604052826104e4565b0390f35b634e487b7160e01b600052604160045260246000fd5b905060046000527f8a35acfbc15ff81a39ae7d344fd709f28e8600b4aa8c65c6b64bfe7fe36bd19b6000905b8282106101da5750602091508201018261014f565b60018160209254838588010152019101906101c5565b90506020925060ff191682840152151560051b8201018261014f565b634e487b7160e01b84526022600452602484fd5b91607f1691610132565b346100d35760203660031901126100d3576001600160a01b0361024b61052d565b1660005260006020526020604060002054604051908152f35b346100d35760003660031901126100d357602060405160128152f35b346100d35760603660031901126100d35761029961052d565b6102a1610543565b6001600160a01b03821660008181526001602090815260408083203384529091529020549092604435929160001981106102e1575b506100fe9350610559565b83811061035057841561033a573315610324576100fe946000526001602052604060002060018060a01b03331660005260205283604060002091039055846102d6565b634a1406b160e11b600052600060045260246000fd5b63e602df0560e01b600052600060045260246000fd5b8390637dc7a0d960e11b6000523360045260245260445260646000fd5b346100d35760003660031901126100d3576020600254604051908152f35b346100d35760403660031901126100d3576103a461052d565b60243590331561033a576001600160a01b031690811561032457336000526001602052604060002082600052602052806040600020556040519081527f8c5be1e5ebec7d5bd14f71427d1e84f3dd0314c0f7b2291e5b200ac8c7c3b92560203392a3602060405160018152f35b346100d35760003660031901126100d35760006003548060011c906001811680156104da575b60208310811461020c578285529081156101f057506001146104835750819003601f01601f191681019067ffffffffffffffff8211818310176101835761017f829182604052826104e4565b905060036000527fc2575a0e9e593c00f959f8c92f12db2869c3395a3b0502d05e2516446f71f85b6000905b8282106104c45750602091508201018261014f565b60018160209254838588010152019101906104af565b91607f1691610437565b91909160208152825180602083015260005b818110610517575060409293506000838284010152601f8019910116010190565b80602080928701015160408286010152016104f6565b600435906001600160a01b03821682036100d357565b602435906001600160a01b03821682036100d357565b6001600160a01b0316908115610608576001600160a01b03169182156105f25760008281528060205260408120548281106105d85791604082827fddf252ad1be2c89b69c2b068fc378daa952ba7f163c4a11628f55a4df523b3ef958760209652828652038282205586815280845220818154019055604051908152a3565b916064928463391434e360e21b8452600452602452604452fd5b63ec442f0560e01b600052600060045260246000fd5b634b637e8f60e11b600052600060045260246000fdfea26469706673582212203a5a7bd59e7c498b590a0ea361f105bbb1e8a8bdcd96e3b51b138f2a320f426064736f6c634300081c0033a2646970667358221220a7637bddbecea81d81a6ee4c74b5ee2db041ef84dfc8e25683efb3fc3915facb64736f6c634300081c0033",
  "linkReferences": {},
  "deployedLinkReferences": {}
}