{
  "_format": "hh-sol-artifact-1",
  "contractName": "SocialFiProfile",
  "sourceName": "contracts/pandafi.sol",
  "abi": [
    {
      "inputs": [
        {
          "internalType": "address",
          "name": "_u2uToken",
          "type": "address"
        }
      ],
      "stateMutability": "nonpayable",
      "type": "constructor"
    },
    {
      "inputs": [
        {
          "internalType": "address",
          "name": "sender",
          "type": "address"
        },
        {
          "internalType": "uint256",
          "name": "tokenId",
          "type": "uint256"
        },
        {
          "internalType": "address",
          "name": "owner",
          "type": "address"
        }
      ],
      "name": "ERC721IncorrectOwner",
      "type": "error"
    },
    {
      "inputs": [
        {
          "internalType": "address",
          "name": "operator",
          "type": "address"
        },
        {
          "internalType": "uint256",
          "name": "tokenId",
          "type": "uint256"
        }
      ],
      "name": "ERC721InsufficientApproval",
      "type": "error"
    },
    {
      "inputs": [
        {
          "internalType": "address",
          "name": "approver",
          "type": "address"
        }
      ],
      "name": "ERC721InvalidApprover",
      "type": "error"
    },
    {
      "inputs": [
        {
          "internalType": "address",
          "name": "operator",
          "type": "address"
        }
      ],
      "name": "ERC721InvalidOperator",
      "type": "error"
    },
    {
      "inputs": [
        {
          "internalType": "address",
          "name": "owner",
          "type": "address"
        }
      ],
      "name": "ERC721InvalidOwner",
      "type": "error"
    },
    {
      "inputs": [
        {
          "internalType": "address",
          "name": "receiver",
          "type": "address"
        }
      ],
      "name": "ERC721InvalidReceiver",
      "type": "error"
    },
    {
      "inputs": [
        {
          "internalType": "address",
          "name": "sender",
          "type": "address"
        }
      ],
      "name": "ERC721InvalidSender",
      "type": "error"
    },
    {
      "inputs": [
        {
          "internalType": "uint256",
          "name": "tokenId",
          "type": "uint256"
        }
      ],
      "name": "ERC721NonexistentToken",
      "type": "error"
    },
    {
      "inputs": [
        {
          "internalType": "address",
          "name": "owner",
          "type": "address"
        }
      ],
      "name": "OwnableInvalidOwner",
      "type": "error"
    },
    {
      "inputs": [
        {
          "internalType": "address",
          "name": "account",
          "type": "address"
        }
      ],
      "name": "OwnableUnauthorizedAccount",
      "type": "error"
    },
    {
      "anonymous": false,
      "inputs": [
        {
          "indexed": true,
          "internalType": "address",
          "name": "owner",
          "type": "address"
        },
        {
          "indexed": true,
          "internalType": "address",
          "name": "approved",
          "type": "address"
        },
        {
          "indexed": true,
          "internalType": "uint256",
          "name": "tokenId",
          "type": "uint256"
        }
      ],
      "name": "Approval",
      "type": "event"
    },
    {
      "anonymous": false,
      "inputs": [
        {
          "indexed": true,
          "internalType": "address",
          "name": "owner",
          "type": "address"
        },
        {
          "indexed": true,
          "internalType": "address",
          "name": "operator",
          "type": "address"
        },
        {
          "indexed": false,
          "internalType": "bool",
          "name": "approved",
          "type": "bool"
        }
      ],
      "name": "ApprovalForAll",
      "type": "event"
    },
    {
      "anonymous": false,
      "inputs": [
        {
          "indexed": true,
          "internalType": "uint256",
          "name": "postId",
          "type": "uint256"
        },
        {
          "indexed": false,
          "internalType": "uint256",
          "name": "commentId",
          "type": "uint256"
        },
        {
          "indexed": false,
          "internalType": "address",
          "name": "author",
          "type": "address"
        }
      ],
      "name": "CommentAdded",
      "type": "event"
    },
    {
      "anonymous": false,
      "inputs": [
        {
          "indexed": true,
          "internalType": "uint256",
          "name": "hireId",
          "type": "uint256"
        },
        {
          "indexed": false,
          "internalType": "uint256",
          "name": "profileId",
          "type": "uint256"
        }
      ],
      "name": "HireCompleted",
      "type": "event"
    },
    {
      "anonymous": false,
      "inputs": [
        {
          "indexed": true,
          "internalType": "address",
          "name": "previousOwner",
          "type": "address"
        },
        {
          "indexed": true,
          "internalType": "address",
          "name": "newOwner",
          "type": "address"
        }
      ],
      "name": "OwnershipTransferred",
      "type": "event"
    },
    {
      "anonymous": false,
      "inputs": [
        {
          "indexed": true,
          "internalType": "uint256",
          "name": "hireId",
          "type": "uint256"
        },
        {
          "indexed": false,
          "internalType": "uint256",
          "name": "profileId",
          "type": "uint256"
        },
        {
          "indexed": false,
          "internalType": "address",
          "name": "hirer",
          "type": "address"
        },
        {
          "indexed": false,
          "internalType": "uint256",
          "name": "amount",
          "type": "uint256"
        }
      ],
      "name": "PlayerHired",
      "type": "event"
    },
    {
      "anonymous": false,
      "inputs": [
        {
          "indexed": true,
          "internalType": "uint256",
          "name": "postId",
          "type": "uint256"
        },
        {
          "indexed": false,
          "internalType": "address",
          "name": "buyer",
          "type": "address"
        },
        {
          "indexed": false,
          "internalType": "uint256",
          "name": "price",
          "type": "uint256"
        }
      ],
      "name": "PostBought",
      "type": "event"
    },
    {
      "anonymous": false,
      "inputs": [
        {
          "indexed": true,
          "internalType": "uint256",
          "name": "postId",
          "type": "uint256"
        },
        {
          "indexed": false,
          "internalType": "address",
          "name": "buyer",
          "type": "address"
        },
        {
          "indexed": false,
          "internalType": "uint256",
          "name": "priceInPostToken",
          "type": "uint256"
        }
      ],
      "name": "PostBoughtWithPostToken",
      "type": "event"
    },
    {
      "anonymous": false,
      "inputs": [
        {
          "indexed": true,
          "internalType": "uint256",
          "name": "postId",
          "type": "uint256"
        },
        {
          "indexed": false,
          "internalType": "uint256",
          "name": "profileId",
          "type": "uint256"
        },
        {
          "indexed": false,
          "internalType": "address",
          "name": "postToken",
          "type": "address"
        }
      ],
      "name": "PostCreated",
      "type": "event"
    },
    {
      "anonymous": false,
      "inputs": [
        {
          "indexed": true,
          "internalType": "uint256",
          "name": "postId",
          "type": "uint256"
        },
        {
          "indexed": false,
          "internalType": "uint256",
          "name": "price",
          "type": "uint256"
        }
      ],
      "name": "PostForSale",
      "type": "event"
    },
    {
      "anonymous": false,
      "inputs": [
        {
          "indexed": true,
          "internalType": "uint256",
          "name": "postId",
          "type": "uint256"
        },
        {
          "indexed": true,
          "internalType": "address",
          "name": "postToken",
          "type": "address"
        },
        {
          "indexed": false,
          "internalType": "uint256",
          "name": "priceInPostToken",
          "type": "uint256"
        }
      ],
      "name": "PostForSaleWithPostToken",
      "type": "event"
    },
    {
      "anonymous": false,
      "inputs": [
        {
          "indexed": true,
          "internalType": "uint256",
          "name": "postId",
          "type": "uint256"
        },
        {
          "indexed": false,
          "internalType": "address",
          "name": "liker",
          "type": "address"
        }
      ],
      "name": "PostLiked",
      "type": "event"
    },
    {
      "anonymous": false,
      "inputs": [
        {
          "indexed": true,
          "internalType": "uint256",
          "name": "postId",
          "type": "uint256"
        },
        {
          "indexed": false,
          "internalType": "address",
          "name": "tipper",
          "type": "address"
        },
        {
          "indexed": false,
          "internalType": "uint256",
          "name": "amount",
          "type": "uint256"
        }
      ],
      "name": "PostTipped",
      "type": "event"
    },
    {
      "anonymous": false,
      "inputs": [
        {
          "indexed": true,
          "internalType": "uint256",
          "name": "postId",
          "type": "uint256"
        },
        {
          "indexed": false,
          "internalType": "address",
          "name": "buyer",
          "type": "address"
        },
        {
          "indexed": false,
          "internalType": "uint256",
          "name": "amount",
          "type": "uint256"
        },
        {
          "indexed": false,
          "internalType": "uint256",
          "name": "totalCost",
          "type": "uint256"
        }
      ],
      "name": "PostTokenBought",
      "type": "event"
    },
    {
      "anonymous": false,
      "inputs": [
        {
          "indexed": true,
          "internalType": "uint256",
          "name": "postId",
          "type": "uint256"
        },
        {
          "indexed": false,
          "internalType": "uint256",
          "name": "tokenPrice",
          "type": "uint256"
        },
        {
          "indexed": false,
          "internalType": "uint256",
          "name": "amount",
          "type": "uint256"
        }
      ],
      "name": "PostTokenForSale",
      "type": "event"
    },
    {
      "anonymous": false,
      "inputs": [
        {
          "indexed": true,
          "internalType": "uint256",
          "name": "profileId",
          "type": "uint256"
        },
        {
          "indexed": false,
          "internalType": "address",
          "name": "owner",
          "type": "address"
        }
      ],
      "name": "ProfileCreated",
      "type": "event"
    },
    {
      "anonymous": false,
      "inputs": [
        {
          "indexed": true,
          "internalType": "address",
          "name": "from",
          "type": "address"
        },
        {
          "indexed": true,
          "internalType": "address",
          "name": "to",
          "type": "address"
        },
        {
          "indexed": true,
          "internalType": "uint256",
          "name": "tokenId",
          "type": "uint256"
        }
      ],
      "name": "Transfer",
      "type": "event"
    },
    {
      "inputs": [
        {
          "internalType": "uint256",
          "name": "_postId",
          "type": "uint256"
        },
        {
          "internalType": "string",
          "name": "_contentCID",
          "type": "string"
        }
      ],
      "name": "addComment",
      "outputs": [],
      "stateMutability": "nonpayable",
      "type": "function"
    },
    {
      "inputs": [
        {
          "internalType": "address",
          "name": "to",
          "type": "address"
        },
        {
          "internalType": "uint256",
          "name": "tokenId",
          "type": "uint256"
        }
      ],
      "name": "approve",
      "outputs": [],
      "stateMutability": "nonpayable",
      "type": "function"
    },
    {
      "inputs": [
        {
          "internalType": "address",
          "name": "owner",
          "type": "address"
        }
      ],
      "name": "balanceOf",
      "outputs": [
        {
          "internalType": "uint256",
          "name": "",
          "type": "uint256"
        }
      ],
      "stateMutability": "view",
      "type": "function"
    },
    {
      "inputs": [
        {
          "internalType": "uint256",
          "name": "_postId",
          "type": "uint256"
        }
      ],
      "name": "buyPost",
      "outputs": [],
      "stateMutability": "nonpayable",
      "type": "function"
    },
    {
      "inputs": [
        {
          "internalType": "uint256",
          "name": "_postId",
          "type": "uint256"
        },
        {
          "internalType": "uint256",
          "name": "_amount",
          "type": "uint256"
        }
      ],
      "name": "buyPostTokens",
      "outputs": [],
      "stateMutability": "nonpayable",
      "type": "function"
    },
    {
      "inputs": [
        {
          "internalType": "uint256",
          "name": "_postId",
          "type": "uint256"
        }
      ],
      "name": "buyPostWithPostToken",
      "outputs": [],
      "stateMutability": "nonpayable",
      "type": "function"
    },
    {
      "inputs": [
        {
          "internalType": "uint256",
          "name": "_hireId",
          "type": "uint256"
        },
        {
          "internalType": "address",
          "name": "caller",
          "type": "address"
        }
      ],
      "name": "canCompleteHire",
      "outputs": [
        {
          "internalType": "bool",
          "name": "",
          "type": "bool"
        }
      ],
      "stateMutability": "view",
      "type": "function"
    },
    {
      "inputs": [],
      "name": "commentCount",
      "outputs": [
        {
          "internalType": "uint256",
          "name": "",
          "type": "uint256"
        }
      ],
      "stateMutability": "view",
      "type": "function"
    },
    {
      "inputs": [
        {
          "internalType": "uint256",
          "name": "",
          "type": "uint256"
        }
      ],
      "name": "comments",
      "outputs": [
        {
          "internalType": "uint256",
          "name": "id",
          "type": "uint256"
        },
        {
          "internalType": "uint256",
          "name": "postId",
          "type": "uint256"
        },
        {
          "internalType": "address",
          "name": "author",
          "type": "address"
        },
        {
          "internalType": "string",
          "name": "contentCID",
          "type": "string"
        },
        {
          "internalType": "uint256",
          "name": "timestamp",
          "type": "uint256"
        }
      ],
      "stateMutability": "view",
      "type": "function"
    },
    {
      "inputs": [
        {
          "internalType": "uint256",
          "name": "_hireId",
          "type": "uint256"
        },
        {
          "internalType": "address",
          "name": "_streamer",
          "type": "address"
        }
      ],
      "name": "completeHire",
      "outputs": [],
      "stateMutability": "nonpayable",
      "type": "function"
    },
    {
      "inputs": [
        {
          "internalType": "uint256",
          "name": "_profileId",
          "type": "uint256"
        },
        {
          "internalType": "string",
          "name": "_contentCID",
          "type": "string"
        },
        {
          "internalType": "string",
          "name": "_tokenName",
          "type": "string"
        },
        {
          "internalType": "string",
          "name": "_tokenSymbol",
          "type": "string"
        }
      ],
      "name": "createPost",
      "outputs": [],
      "stateMutability": "nonpayable",
      "type": "function"
    },
    {
      "inputs": [
        {
          "internalType": "string",
          "name": "_name",
          "type": "string"
        },
        {
          "internalType": "string",
          "name": "_avatarCID",
          "type": "string"
        },
        {
          "internalType": "string",
          "name": "_bioCID",
          "type": "string"
        }
      ],
      "name": "createProfile",
      "outputs": [],
      "stateMutability": "nonpayable",
      "type": "function"
    },
    {
      "inputs": [
        {
          "internalType": "uint256",
          "name": "tokenId",
          "type": "uint256"
        }
      ],
      "name": "getApproved",
      "outputs": [
        {
          "internalType": "address",
          "name": "",
          "type": "address"
        }
      ],
      "stateMutability": "view",
      "type": "function"
    },
    {
      "inputs": [
        {
          "internalType": "uint256",
          "name": "_commentId",
          "type": "uint256"
        }
      ],
      "name": "getComment",
      "outputs": [
        {
          "components": [
            {
              "internalType": "uint256",
              "name": "id",
              "type": "uint256"
            },
            {
              "internalType": "uint256",
              "name": "postId",
              "type": "uint256"
            },
            {
              "internalType": "address",
              "name": "author",
              "type": "address"
            },
            {
              "internalType": "string",
              "name": "contentCID",
              "type": "string"
            },
            {
              "internalType": "uint256",
              "name": "timestamp",
              "type": "uint256"
            }
          ],
          "internalType": "struct SocialFiProfile.Comment",
          "name": "",
          "type": "tuple"
        }
      ],
      "stateMutability": "view",
      "type": "function"
    },
    {
      "inputs": [
        {
          "internalType": "uint256",
          "name": "_hireId",
          "type": "uint256"
        }
      ],
      "name": "getHire",
      "outputs": [
        {
          "components": [
            {
              "internalType": "uint256",
              "name": "id",
              "type": "uint256"
            },
            {
              "internalType": "uint256",
              "name": "profileId",
              "type": "uint256"
            },
            {
              "internalType": "address",
              "name": "hirer",
              "type": "address"
            },
            {
              "internalType": "address",
              "name": "owner",
              "type": "address"
            },
            {
              "internalType": "uint256",
              "name": "duration",
              "type": "uint256"
            },
            {
              "internalType": "uint256",
              "name": "amount",
              "type": "uint256"
            },
            {
              "internalType": "uint256",
              "name": "createdAt",
              "type": "uint256"
            },
            {
              "internalType": "bool",
              "name": "completed",
              "type": "bool"
            }
          ],
          "internalType": "struct SocialFiProfile.Hire",
          "name": "",
          "type": "tuple"
        }
      ],
      "stateMutability": "view",
      "type": "function"
    },
    {
      "inputs": [
        {
          "internalType": "uint256",
          "name": "_hireId",
          "type": "uint256"
        }
      ],
      "name": "getHireWithOwner",
      "outputs": [
        {
          "internalType": "uint256",
          "name": "id",
          "type": "uint256"
        },
        {
          "internalType": "uint256",
          "name": "profileId",
          "type": "uint256"
        },
        {
          "internalType": "address",
          "name": "hirer",
          "type": "address"
        },
        {
          "internalType": "address",
          "name": "owner",
          "type": "address"
        },
        {
          "internalType": "uint256",
          "name": "duration",
          "type": "uint256"
        },
        {
          "internalType": "uint256",
          "name": "amount",
          "type": "uint256"
        },
        {
          "internalType": "uint256",
          "name": "createdAt",
          "type": "uint256"
        },
        {
          "internalType": "bool",
          "name": "completed",
          "type": "bool"
        }
      ],
      "stateMutability": "view",
      "type": "function"
    },
    {
      "inputs": [
        {
          "internalType": "address",
          "name": "_owner",
          "type": "address"
        }
      ],
      "name": "getHiresByOwner",
      "outputs": [
        {
          "internalType": "uint256[]",
          "name": "",
          "type": "uint256[]"
        }
      ],
      "stateMutability": "view",
      "type": "function"
    },
    {
      "inputs": [
        {
          "internalType": "uint256",
          "name": "_postId",
          "type": "uint256"
        }
      ],
      "name": "getPost",
      "outputs": [
        {
          "components": [
            {
              "internalType": "uint256",
              "name": "id",
              "type": "uint256"
            },
            {
              "internalType": "uint256",
              "name": "profileId",
              "type": "uint256"
            },
            {
              "internalType": "string",
              "name": "contentCID",
              "type": "string"
            },
            {
              "internalType": "uint256",
              "name": "timestamp",
              "type": "uint256"
            },
            {
              "internalType": "uint256",
              "name": "likeCount",
              "type": "uint256"
            },
            {
              "internalType": "uint256",
              "name": "commentCount",
              "type": "uint256"
            },
            {
              "internalType": "uint256",
              "name": "tipAmount",
              "type": "uint256"
            },
            {
              "internalType": "bool",
              "name": "isForSale",
              "type": "bool"
            },
            {
              "internalType": "uint256",
              "name": "price",
              "type": "uint256"
            },
            {
              "internalType": "bool",
              "name": "isDeleted",
              "type": "bool"
            },
            {
              "internalType": "address",
              "name": "postToken",
              "type": "address"
            },
            {
              "internalType": "uint256",
              "name": "tokenPrice",
              "type": "uint256"
            },
            {
              "internalType": "uint256",
              "name": "tokensForSale",
              "type": "uint256"
            },
            {
              "internalType": "bool",
              "name": "isForSaleInPostToken",
              "type": "bool"
            },
            {
              "internalType": "uint256",
              "name": "priceInPostToken",
              "type": "uint256"
            }
          ],
          "internalType": "struct SocialFiProfile.Post",
          "name": "",
          "type": "tuple"
        }
      ],
      "stateMutability": "view",
      "type": "function"
    },
    {
      "inputs": [
        {
          "internalType": "uint256",
          "name": "_profileId",
          "type": "uint256"
        }
      ],
      "name": "getProfile",
      "outputs": [
        {
          "components": [
            {
              "internalType": "uint256",
              "name": "id",
              "type": "uint256"
            },
            {
              "internalType": "address",
              "name": "owner",
              "type": "address"
            },
            {
              "internalType": "string",
              "name": "name",
              "type": "string"
            },
            {
              "internalType": "string",
              "name": "avatarCID",
              "type": "string"
            },
            {
              "internalType": "string",
              "name": "bioCID",
              "type": "string"
            },
            {
              "internalType": "uint256",
              "name": "createdAt",
              "type": "uint256"
            },
            {
              "internalType": "uint256",
              "name": "socialTokenBalance",
              "type": "uint256"
            },
            {
              "internalType": "uint256",
              "name": "totalEarned",
              "type": "uint256"
            },
            {
              "internalType": "uint256",
              "name": "totalHires",
              "type": "uint256"
            }
          ],
          "internalType": "struct SocialFiProfile.Profile",
          "name": "",
          "type": "tuple"
        }
      ],
      "stateMutability": "view",
      "type": "function"
    },
    {
      "inputs": [
        {
          "internalType": "uint256",
          "name": "_topN",
          "type": "uint256"
        }
      ],
      "name": "getTopPlayers",
      "outputs": [
        {
          "components": [
            {
              "internalType": "uint256",
              "name": "id",
              "type": "uint256"
            },
            {
              "internalType": "address",
              "name": "owner",
              "type": "address"
            },
            {
              "internalType": "string",
              "name": "name",
              "type": "string"
            },
            {
              "internalType": "string",
              "name": "avatarCID",
              "type": "string"
            },
            {
              "internalType": "string",
              "name": "bioCID",
              "type": "string"
            },
            {
              "internalType": "uint256",
              "name": "createdAt",
              "type": "uint256"
            },
            {
              "internalType": "uint256",
              "name": "socialTokenBalance",
              "type": "uint256"
            },
            {
              "internalType": "uint256",
              "name": "totalEarned",
              "type": "uint256"
            },
            {
              "internalType": "uint256",
              "name": "totalHires",
              "type": "uint256"
            }
          ],
          "internalType": "struct SocialFiProfile.Profile[]",
          "name": "",
          "type": "tuple[]"
        }
      ],
      "stateMutability": "view",
      "type": "function"
    },
    {
      "inputs": [],
      "name": "hireCount",
      "outputs": [
        {
          "internalType": "uint256",
          "name": "",
          "type": "uint256"
        }
      ],
      "stateMutability": "view",
      "type": "function"
    },
    {
      "inputs": [
        {
          "internalType": "uint256",
          "name": "_profileId",
          "type": "uint256"
        },
        {
          "internalType": "uint256",
          "name": "_duration",
          "type": "uint256"
        },
        {
          "internalType": "uint256",
          "name": "_ratePerHour",
          "type": "uint256"
        }
      ],
      "name": "hirePlayer",
      "outputs": [],
      "stateMutability": "nonpayable",
      "type": "function"
    },
    {
      "inputs": [
        {
          "internalType": "uint256",
          "name": "",
          "type": "uint256"
        }
      ],
      "name": "hires",
      "outputs": [
        {
          "internalType": "uint256",
          "name": "id",
          "type": "uint256"
        },
        {
          "internalType": "uint256",
          "name": "profileId",
          "type": "uint256"
        },
        {
          "internalType": "address",
          "name": "hirer",
          "type": "address"
        },
        {
          "internalType": "address",
          "name": "owner",
          "type": "address"
        },
        {
          "internalType": "uint256",
          "name": "duration",
          "type": "uint256"
        },
        {
          "internalType": "uint256",
          "name": "amount",
          "type": "uint256"
        },
        {
          "internalType": "uint256",
          "name": "createdAt",
          "type": "uint256"
        },
        {
          "internalType": "bool",
          "name": "completed",
          "type": "bool"
        }
      ],
      "stateMutability": "view",
      "type": "function"
    },
    {
      "inputs": [
        {
          "internalType": "address",
          "name": "owner",
          "type": "address"
        },
        {
          "internalType": "address",
          "name": "operator",
          "type": "address"
        }
      ],
      "name": "isApprovedForAll",
      "outputs": [
        {
          "internalType": "bool",
          "name": "",
          "type": "bool"
        }
      ],
      "stateMutability": "view",
      "type": "function"
    },
    {
      "inputs": [
        {
          "internalType": "uint256",
          "name": "_postId",
          "type": "uint256"
        }
      ],
      "name": "likePost",
      "outputs": [],
      "stateMutability": "nonpayable",
      "type": "function"
    },
    {
      "inputs": [],
      "name": "name",
      "outputs": [
        {
          "internalType": "string",
          "name": "",
          "type": "string"
        }
      ],
      "stateMutability": "view",
      "type": "function"
    },
    {
      "inputs": [],
      "name": "owner",
      "outputs": [
        {
          "internalType": "address",
          "name": "",
          "type": "address"
        }
      ],
      "stateMutability": "view",
      "type": "function"
    },
    {
      "inputs": [
        {
          "internalType": "uint256",
          "name": "tokenId",
          "type": "uint256"
        }
      ],
      "name": "ownerOf",
      "outputs": [
        {
          "internalType": "address",
          "name": "",
          "type": "address"
        }
      ],
      "stateMutability": "view",
      "type": "function"
    },
    {
      "inputs": [],
      "name": "postCount",
      "outputs": [
        {
          "internalType": "uint256",
          "name": "",
          "type": "uint256"
        }
      ],
      "stateMutability": "view",
      "type": "function"
    },
    {
      "inputs": [
        {
          "internalType": "uint256",
          "name": "",
          "type": "uint256"
        }
      ],
      "name": "posts",
      "outputs": [
        {
          "internalType": "uint256",
          "name": "id",
          "type": "uint256"
        },
        {
          "internalType": "uint256",
          "name": "profileId",
          "type": "uint256"
        },
        {
          "internalType": "string",
          "name": "contentCID",
          "type": "string"
        },
        {
          "internalType": "uint256",
          "name": "timestamp",
          "type": "uint256"
        },
        {
          "internalType": "uint256",
          "name": "likeCount",
          "type": "uint256"
        },
        {
          "internalType": "uint256",
          "name": "commentCount",
          "type": "uint256"
        },
        {
          "internalType": "uint256",
          "name": "tipAmount",
          "type": "uint256"
        },
        {
          "internalType": "bool",
          "name": "isForSale",
          "type": "bool"
        },
        {
          "internalType": "uint256",
          "name": "price",
          "type": "uint256"
        },
        {
          "internalType": "bool",
          "name": "isDeleted",
          "type": "bool"
        },
        {
          "internalType": "address",
          "name": "postToken",
          "type": "address"
        },
        {
          "internalType": "uint256",
          "name": "tokenPrice",
          "type": "uint256"
        },
        {
          "internalType": "uint256",
          "name": "tokensForSale",
          "type": "uint256"
        },
        {
          "internalType": "bool",
          "name": "isForSaleInPostToken",
          "type": "bool"
        },
        {
          "internalType": "uint256",
          "name": "priceInPostToken",
          "type": "uint256"
        }
      ],
      "stateMutability": "view",
      "type": "function"
    },
    {
      "inputs": [],
      "name": "profileCount",
      "outputs": [
        {
          "internalType": "uint256",
          "name": "",
          "type": "uint256"
        }
      ],
      "stateMutability": "view",
      "type": "function"
    },
    {
      "inputs": [
        {
          "internalType": "uint256",
          "name": "",
          "type": "uint256"
        }
      ],
      "name": "profiles",
      "outputs": [
        {
          "internalType": "uint256",
          "name": "id",
          "type": "uint256"
        },
        {
          "internalType": "address",
          "name": "owner",
          "type": "address"
        },
        {
          "internalType": "string",
          "name": "name",
          "type": "string"
        },
        {
          "internalType": "string",
          "name": "avatarCID",
          "type": "string"
        },
        {
          "internalType": "string",
          "name": "bioCID",
          "type": "string"
        },
        {
          "internalType": "uint256",
          "name": "createdAt",
          "type": "uint256"
        },
        {
          "internalType": "uint256",
          "name": "socialTokenBalance",
          "type": "uint256"
        },
        {
          "internalType": "uint256",
          "name": "totalEarned",
          "type": "uint256"
        },
        {
          "internalType": "uint256",
          "name": "totalHires",
          "type": "uint256"
        }
      ],
      "stateMutability": "view",
      "type": "function"
    },
    {
      "inputs": [],
      "name": "renounceOwnership",
      "outputs": [],
      "stateMutability": "nonpayable",
      "type": "function"
    },
    {
      "inputs": [
        {
          "internalType": "address",
          "name": "from",
          "type": "address"
        },
        {
          "internalType": "address",
          "name": "to",
          "type": "address"
        },
        {
          "internalType": "uint256",
          "name": "tokenId",
          "type": "uint256"
        }
      ],
      "name": "safeTransferFrom",
      "outputs": [],
      "stateMutability": "nonpayable",
      "type": "function"
    },
    {
      "inputs": [
        {
          "internalType": "address",
          "name": "from",
          "type": "address"
        },
        {
          "internalType": "address",
          "name": "to",
          "type": "address"
        },
        {
          "internalType": "uint256",
          "name": "tokenId",
          "type": "uint256"
        },
        {
          "internalType": "bytes",
          "name": "data",
          "type": "bytes"
        }
      ],
      "name": "safeTransferFrom",
      "outputs": [],
      "stateMutability": "nonpayable",
      "type": "function"
    },
    {
      "inputs": [
        {
          "internalType": "uint256",
          "name": "_postId",
          "type": "uint256"
        },
        {
          "internalType": "uint256",
          "name": "_price",
          "type": "uint256"
        }
      ],
      "name": "sellPost",
      "outputs": [],
      "stateMutability": "nonpayable",
      "type": "function"
    },
    {
      "inputs": [
        {
          "internalType": "uint256",
          "name": "_postId",
          "type": "uint256"
        },
        {
          "internalType": "uint256",
          "name": "_priceInPostToken",
          "type": "uint256"
        }
      ],
      "name": "sellPostWithPostToken",
      "outputs": [],
      "stateMutability": "nonpayable",
      "type": "function"
    },
    {
      "inputs": [
        {
          "internalType": "address",
          "name": "operator",
          "type": "address"
        },
        {
          "internalType": "bool",
          "name": "approved",
          "type": "bool"
        }
      ],
      "name": "setApprovalForAll",
      "outputs": [],
      "stateMutability": "nonpayable",
      "type": "function"
    },
    {
      "inputs": [
        {
          "internalType": "uint256",
          "name": "_postId",
          "type": "uint256"
        },
        {
          "internalType": "uint256",
          "name": "_tokenPrice",
          "type": "uint256"
        },
        {
          "internalType": "uint256",
          "name": "_amount",
          "type": "uint256"
        }
      ],
      "name": "setPostTokenForSale",
      "outputs": [],
      "stateMutability": "nonpayable",
      "type": "function"
    },
    {
      "inputs": [
        {
          "internalType": "bytes4",
          "name": "interfaceId",
          "type": "bytes4"
        }
      ],
      "name": "supportsInterface",
      "outputs": [
        {
          "internalType": "bool",
          "name": "",
          "type": "bool"
        }
      ],
      "stateMutability": "view",
      "type": "function"
    },
    {
      "inputs": [],
      "name": "symbol",
      "outputs": [
        {
          "internalType": "string",
          "name": "",
          "type": "string"
        }
      ],
      "stateMutability": "view",
      "type": "function"
    },
    {
      "inputs": [
        {
          "internalType": "uint256",
          "name": "_postId",
          "type": "uint256"
        },
        {
          "internalType": "uint256",
          "name": "_amount",
          "type": "uint256"
        }
      ],
      "name": "tipPost",
      "outputs": [],
      "stateMutability": "nonpayable",
      "type": "function"
    },
    {
      "inputs": [
        {
          "internalType": "uint256",
          "name": "tokenId",
          "type": "uint256"
        }
      ],
      "name": "tokenURI",
      "outputs": [
        {
          "internalType": "string",
          "name": "",
          "type": "string"
        }
      ],
      "stateMutability": "view",
      "type": "function"
    },
    {
      "inputs": [
        {
          "internalType": "address",
          "name": "from",
          "type": "address"
        },
        {
          "internalType": "address",
          "name": "to",
          "type": "address"
        },
        {
          "internalType": "uint256",
          "name": "tokenId",
          "type": "uint256"
        }
      ],
      "name": "transferFrom",
      "outputs": [],
      "stateMutability": "nonpayable",
      "type": "function"
    },
    {
      "inputs": [
        {
          "internalType": "address",
          "name": "newOwner",
          "type": "address"
        }
      ],
      "name": "transferOwnership",
      "outputs": [],
      "stateMutability": "nonpayable",
      "type": "function"
    },
    {
      "inputs": [],
      "name": "u2uToken",
      "outputs": [
        {
          "internalType": "contract IERC20",
          "name": "",
          "type": "address"
        }
      ],
      "stateMutability": "view",
      "type": "function"
    }
  ],
  "bytecode": "0x6080604052346104085761483d6020813803918261001c8161040d565b93849283398101031261040857516001600160a01b0381169081900361040857610046604061040d565b90600c82526b14dbd8da585b119a541bdcdd60a21b602083015261006a604061040d565b600381526205346560ec1b602082015282519091906001600160401b03811161031357600054600181811c911680156103fe575b60208210146102f357601f811161039a575b506020601f82116001146103345781929394600092610329575b50508160011b916000199060031b1c1916176000555b81516001600160401b03811161031357600154600181811c91168015610309575b60208210146102f357601f811161028e575b50602092601f8211600114610229579281929360009261021e575b50508160011b916000199060031b1c1916176001555b33156102085760068054336001600160a01b03198216811790925560405191906001600160a01b03167f8be0079c531659141344cd1fd0a4f28419497f9722a3daafe3b4186f6b6457e0600080a360ff196010541660105581156101c65750600780546001600160a01b03191691909117905560405161440a90816104338239f35b62461bcd60e51b815260206004820152601560248201527f496e76616c696420746f6b656e206164647265737300000000000000000000006044820152606490fd5b631e4fbdf760e01b600052600060045260246000fd5b01519050388061012e565b601f198216936001600052806000209160005b868110610276575083600195961061025d575b505050811b01600155610144565b015160001960f88460031b161c1916905538808061024f565b9192602060018192868501518155019401920161023c565b60016000527fb10e2d527612073b26eecdfd717e6a320cf44b4afac2b0732d9fcbe2b7fa0cf6601f830160051c810191602084106102e9575b601f0160051c01905b8181106102dd5750610113565b600081556001016102d0565b90915081906102c7565b634e487b7160e01b600052602260045260246000fd5b90607f1690610101565b634e487b7160e01b600052604160045260246000fd5b0151905038806100ca565b601f1982169060008052806000209160005b81811061038257509583600195969710610369575b505050811b016000556100e0565b015160001960f88460031b161c1916905538808061035b565b9192602060018192868b015181550194019201610346565b600080527f290decd9548b62a8d60345a988386fc84ba6bc95484008f6362f93160ef3e563601f830160051c810191602084106103f4575b601f0160051c01905b8181106103e857506100b0565b600081556001016103db565b90915081906103d2565b90607f169061009e565b600080fd5b6040519190601f01601f191682016001600160401b038111838210176103135760405256fe608080604052600436101561001357600080fd5b600090813560e01c90816301ffc9a714612dfd5750806306fdde0314612d755780630800e30014612c98578063081812fc14612c5b578063095ea7b314612b735780630b1e7f8314612a7857806317906c2e14612a5a57806323b872dd14612a425780632fa67338146129225780633b344835146124c357806340731c24146122bb57806342842e0e1461229157806345ff20de14612273578063514c938c1461215c578063607d73a414611ee057806362b7aa7b14611c525780636352211e14611c2157806370a0823114611bce578063714d527e14611b65578063715018a614611b08578063725009d314611a9a5780637982a031146119e45780638da5cb5b146119bb5780638ebb4c151461194357806395d89b41146118605780639841c82c1461139b578063a22cb465146112f4578063a6e346e7146110ee578063aa7e568314610ebe578063ab851f1914610e95578063adb7081414610ded578063b406952014610dcf578063b88d4fde14610d68578063ba3c006714610c2a578063c06585bb14610aa0578063c36fe3d6146109d3578063c5c40022146108d6578063c87b56dd1461087e578063c87cacbc14610762578063e1c939de14610549578063e8f03fb2146103d6578063e985e9c51461037c578063ef43acef1461035e578063f08f4f6414610316578063f2fde38b1461028c5763f9ba45fd1461021b57600080fd5b34610289576020366003190112610289576040906004358152600f60205220805461028560018301549260018060a01b036002820154169060018060a01b03600382015416600482015460058301549160ff6007600686015495015416946040519889988961313a565b0390f35b80fd5b5034610289576020366003190112610289576102a6612eab565b6102ae6138fa565b6001600160a01b0316801561030257600680546001600160a01b0319811683179091556001600160a01b03167f8be0079c531659141344cd1fd0a4f28419497f9722a3daafe3b4186f6b6457e0600080a380f35b631e4fbdf760e01b82526004829052602482fd5b50346102895760203660031901126102895761034a6040610285926103396136c0565b506004358152600c60205220613706565b604051918291602083526020830190613183565b50346102895780600319360112610289576020600854604051908152f35b5034610289576040366003190112610289576040610398612eab565b916103a1612ec6565b9260018060a01b031681526005602052209060018060a01b0316600052602052602060ff604060002054166040519015158152f35b5034610289576103e53661310a565b906104026103f284613799565b6001600160a01b03163314613502565b811561051257828452600d60205260408420906024602060018060a01b03600985015460081c16604051928380926370a0823160e01b82523360048301525afa801561050757849187916104ce575b501061049557827fac13ab7f96040f50e11a8acd277a4953aad002bfca7e6c27d05d0c9b6eb4e08d93600b8484600a6040970155015582519182526020820152a280f35b60405162461bcd60e51b81526020600482015260116024820152704e6f7420656e6f75676820746f6b656e7360781b6044820152606490fd5b9150506020813d6020116104ff575b816104ea60209383612f9b565b810103126104fb5783905138610451565b8580fd5b3d91506104dd565b6040513d88823e3d90fd5b60405162461bcd60e51b815260206004820152600f60248201526e139bdd1a1a5b99c81d1bc81cd95b1b608a1b6044820152606490fd5b503461028957604036600319011261028957600435610566612ec6565b818352600f6020526040832060038101549091906001600160a01b0316330361071d5760078201805460ff81166106df5760019060ff1916179055600182019182548552600c602052600860056040872092019182546105cb6007830191825461378c565b905501805490600182018092116106cb5755600754905460405163a9059cbb60e01b81526001600160a01b039384166004820152602481019190915291602091839160449183918991165af19081156106c0578491610691575b501561065a5760207f6788651d5f1960bd157379b30871945b85070dad99ebfb7a84e18a55c74b3c309154604051908152a280f35b60405162461bcd60e51b815260206004820152600f60248201526e151c985b9cd9995c8819985a5b1959608a1b6044820152606490fd5b6106b3915060203d6020116106b9575b6106ab8183612f9b565b810190613402565b38610625565b503d6106a1565b6040513d86823e3d90fd5b634e487b7160e01b87526011600452602487fd5b60405162461bcd60e51b8152602060048201526016602482015275121a5c9948185b1c9958591e4818dbdb5c1b195d195960521b6044820152606490fd5b60405162461bcd60e51b815260206004820152601c60248201527f4f6e6c792068697265206f776e65722063616e20636f6d706c657465000000006044820152606490fd5b5034610289576020366003190112610289576040816101009260e0835161078881612f63565b82815282602082015282858201528260608201528260808201528260a08201528260c082015201526004358152600f602052206040516107c781612f63565b81549182825260018101546020830190815260018060a01b036002830154166040840190815260018060a01b03600384015416606085019081526004840154916080860192835260058501549360a0870194855260e060ff600760068901549860c08b01998a520154169701961515875260405197885251602088015260018060a01b03905116604087015260018060a01b0390511660608601525160808501525160a08401525160c083015251151560e0820152f35b50346102895760203660031901126102895761089b600435613799565b50806040516108ab602082612f9b565b52506102856040516108be602082612f9b565b60008152604051918291602083526020830190612e6a565b5034610289576108e536613124565b906108f26103f282613799565b811561099a57808352600d60205260408320600981015460081c6001600160a01b03169290831561096057817ff83c72c29ee051b8a3a8587b9a2aaecd01ad84612e46dd3b3a3670bd0db9621792600d83600c60209501600160ff198254161790550155604051908152a380f35b60405162461bcd60e51b8152602060048201526012602482015271141bdcdd081d1bdad95b881b9bdd081cd95d60721b6044820152606490fd5b60405162461bcd60e51b815260206004820152601160248201527005072696365206d757374206265203e203607c1b6044820152606490fd5b5034610289576020366003190112610289576004358152600c60205260409020805460018201546001600160a01b031691610a1060028201612fbc565b610a1c60038301612fbc565b91610a2960048201612fbc565b92610a86600583015494610a78600685015493610a6a60086007880154970154976040519b8c9b8c5260208c015261012060408c01526101208b0190612e6a565b9089820360608b0152612e6a565b908782036080890152612e6a565b9360a086015260c085015260e08401526101008301520390f35b503461028957610aaf36613124565b818352600d60205260408320610acc60ff6009830154161561353e565b8115610bfa576007546040516323b872dd60e01b815233600482015230602482015260448101849052906020908290606490829089906001600160a01b03165af1908115610bef578591610bd0575b5015610b95577f4db8afe9bce39012f1b036566400165e4630e1d714b2a6f7339a4adcdfb16c3d916001826006610b8f9401610b5884825461378c565b905501548552600c60205260066040862001610b7582825461378c565b905560408051338152602081019290925290918291820190565b0390a280f35b60405162461bcd60e51b8152602060048201526013602482015272151a5c081d1c985b9cd9995c8819985a5b1959606a1b6044820152606490fd5b610be9915060203d6020116106b9576106ab8183612f9b565b38610b1b565b6040513d87823e3d90fd5b60405162461bcd60e51b815260206004820152600860248201526705a65726f207469760c41b6044820152606490fd5b50346102895760203660031901126102895760085460043580821015610d6157505b610c558161347c565b90610c636040519283612f9b565b808252601f19610c728261347c565b01835b818110610d4a57505060015b81811115610cf05782846040519182916020830160208452825180915260408401602060408360051b870101940192905b828210610cc157505050500390f35b91936001919395506020610ce08192603f198a82030186528851613183565b9601920192018594939192610cb2565b808452600c60205260408420600019820190828211610d3657610d319291610d1a610d2b92613706565b610d2482886134c5565b52856134c5565b50613457565b610c81565b634e487b7160e01b86526011600452602486fd5b602090610d556136c0565b82828701015201610c75565b9050610c4c565b503461028957608036600319011261028957610d82612eab565b610d8a612ec6565b606435916001600160401b038311610dcb5736602384011215610dcb57610dbe610dc89336906024816004013591016130b5565b9160443591613579565b80f35b8380fd5b50346102895780600319360112610289576020600b54604051908152f35b5034610289576020366003190112610289576040906004358152600f6020522060405190610e1a82612f63565b61028560e082549283855260018101549485602082015260018060a01b0360028301541680604083015260018060a01b036003840154168060608401526004840154918260808501526005850154938460a082015260ff60076006880154978860c0850152015416151596879101526040519889988961313a565b50346102895780600319360112610289576007546040516001600160a01b039091168152602090f35b5034610289576040366003190112610289576004356024356001600160401b0381116110ea57610ef29036906004016130ec565b610efd600a54613457565b80600a5560405191610f0e83612f16565b8183526020808401858152336040808701918252606087019485524260808801908152958952600e90935291872094518555516001850155516002840180546001600160a01b0319166001600160a01b039290921691909117905551805160038401916001600160401b0382116110d657610f898354612edc565b601f8111611091575b50602090601f831160011461102a5760049493929188918361101f575b50508160011b916000199060031b1c19161790555b51910155808252600d60205260056040832001610fe18154613457565b9055600a54604080519182523360208301527fdb54cde47150062529bc4f2e10c2493c8ae39bc079c9c24f9e365c135098d4bb919081908101610b8f565b015190503880610faf565b8388528188209190601f198416895b818110611079575091600193918560049897969410611060575b505050811b019055610fc4565b015160001960f88460031b161c19169055388080611053565b92936020600181928786015181550195019301611039565b83885260208820601f840160051c810191602085106110cc575b601f0160051c01905b8181106110c15750610f92565b8881556001016110b4565b90915081906110ab565b634e487b7160e01b87526041600452602487fd5b8280fd5b503461028957602036600319011261028957600435600160105461111560ff8216156133b6565b60ff191617601055808252600d60205260408220600c8101805460ff16156112af5761114083613799565b91600d810192835491821561127a57600901546040516323b872dd60e01b81523360048201526001600160a01b038381166024830152604482018590529091602091839160081c16818a816064810103925af190811561126f578791611250575b501561120b577fd03356c41ffe2531cd6992a559ee0a16cd2233bd5ddb185257345542e21338c7936111fb936111da878994339061389e565b805460ff191690555560408051338152602081019290925290918291820190565b0390a260ff196010541660105580f35b60405162461bcd60e51b815260206004820152601860248201527f506f7374546f6b656e207061796d656e74206661696c656400000000000000006044820152606490fd5b611269915060203d6020116106b9576106ab8183612f9b565b386111a1565b6040513d89823e3d90fd5b60405162461bcd60e51b815260206004820152600d60248201526c496e76616c696420707269636560981b6044820152606490fd5b60405162461bcd60e51b815260206004820152601a60248201527f4e6f7420666f722073616c6520696e20706f737420746f6b656e0000000000006044820152606490fd5b50346102895760403660031901126102895761130e612eab565b6024359081151590818303610dcb576001600160a01b03169182156113875761135890338552600560205260408520848652602052604085209060ff801983541691151516179055565b6040519081527f17307eab39ab6107e8899845ad3d59bd9653f200f220920489ca2b5937696c3160203392a380f35b630b61174360e31b84526004839052602484fd5b5034610289576060366003190112610289576004356001600160401b03811161185c576113cc9036906004016130ec565b906024356001600160401b03811161185c576113ec9036906004016130ec565b916044356001600160401b0381116110ea5761140c9036906004016130ec565b92611418600854613457565b90816008556040519261142a84612f7f565b828452336020808601918252604080870193845260608701948552608087019889524260a0880190815260c0880189815260e089018a81526101008a018b8152988b52600c9094529189209751885592516001880180546001600160a01b0319166001600160a01b03929092169190911790559251805191949160028801916001600160401b0382116118485781906114c38454612edc565b601f81116117f8575b50602090601f8311600114611795578b9261178a575b50508160011b916000199060031b1c19161790555b51805160038701916001600160401b0382116117765781906115198454612edc565b601f8111611726575b50602090601f83116001146116c3578a926116b8575b50508160011b916000199060031b1c19161790555b6004850196519687516001600160401b0381116116a45761156e8254612edc565b601f811161165f575b506020601f82116001146115f9578190899a6008999a926115ee575b50508160011b916000199060031b1c19161790555b516005860155516006850155516007840155519101556008547f9f150021d8fd04eb219a39e3019273bddf99a9a2e434dd2aa8132e32ea9244b06020604051338152a280f35b015190503880611593565b82895280892099601f1983168a5b8181106116475750916008999a9b9184600195941061162e575b505050811b0190556115a8565b015160001960f88460031b161c19169055388080611621565b838301518d556001909c019b60209384019301611607565b82895260208920601f830160051c8101916020841061169a575b601f0160051c01905b81811061168f5750611577565b898155600101611682565b9091508190611679565b634e487b7160e01b88526041600452602488fd5b015190503880611538565b848b52818b209250601f1984168b5b81811061170e57509084600195949392106116f5575b505050811b01905561154d565b015160001960f88460031b161c191690553880806116e8565b929360206001819287860151815501950193016116d2565b909150838a5260208a20601f840160051c8101916020851061176c575b90601f859493920160051c01905b81811061175e5750611522565b8b8155849350600101611751565b9091508190611743565b634e487b7160e01b89526041600452602489fd5b0151905038806114e2565b848c52818c209250601f1984168c5b8181106117e057509084600195949392106117c7575b505050811b0190556114f7565b015160001960f88460031b161c191690553880806117ba565b929360206001819287860151815501950193016117a4565b909150838b5260208b20601f840160051c8101916020851061183e575b90601f859493920160051c01905b81811061183057506114cc565b8c8155849350600101611823565b9091508190611815565b634e487b7160e01b8a52604160045260248afd5b5080fd5b503461028957806003193601126102895760405190806001549061188382612edc565b808552916001811690811561191c57506001146118bf575b610285846118ab81860382612f9b565b604051918291602083526020830190612e6a565b600181527fb10e2d527612073b26eecdfd717e6a320cf44b4afac2b0732d9fcbe2b7fa0cf6939250905b808210611902575090915081016020016118ab8261189b565b9192600181602092548385880101520191019092916118e9565b60ff191660208087019190915292151560051b850190920192506118ab915083905061189b565b5034610289576020366003190112610289576040906004358152600e6020522080546001820154916119b160018060a01b0360028301541691600461198a60038301612fbc565b9101549260405195869586526020860152604085015260a0606085015260a0840190612e6a565b9060808301520390f35b50346102895780600319360112610289576006546040516001600160a01b039091168152602090f35b5034610289576040366003190112610289576020906040611a03612ec6565b916004358152600f84522060405191611a1b83612f63565b8154835260018201548484015260028201546001600160a01b039081166040850152600383015481166060850181905260048401546080860152600584015460a0860152600684015460c086015260079093015460ff1615801560e09095019490945216149081611a92575b506040519015158152f35b905038611a87565b503461028957602036600319011261028957600435808252600d602052600460408320611ace60ff6009830154161561353e565b01611ad98154613457565b90557fcf765d6f163c9b0d832e2a94f4c8e9bffd32a2c3ca5fdbb8cc67b5fe1441f4136020604051338152a280f35b5034610289578060031936011261028957611b216138fa565b600680546001600160a01b0319811690915581906001600160a01b03167f8be0079c531659141344cd1fd0a4f28419497f9722a3daafe3b4186f6b6457e08280a380f35b50346102895760207f630e2de774570d3061127351ceb50b75cb6de0b66ba9382037683198f7072fd5611b9736613124565b611ba56103f2839593613799565b838552600d82528060086040872060078101600160ff198254161790550155604051908152a280f35b5034610289576020366003190112610289576001600160a01b03611bf0612eab565b168015611c0d578160409160209352600383522054604051908152f35b6322718ad960e21b82526004829052602482fd5b5034610289576020366003190112610289576020611c40600435613799565b6040516001600160a01b039091168152f35b503461028957611c6136613124565b6001601054611c7360ff8216156133b6565b60ff1916176010558015611ead57818352600d60205260408320600a8101549081151580611e9f575b15611e4e57670de0b6b3a7640000611cbd84611cb787613799565b946134ef565b6007546040516323b872dd60e01b81523360048201526001600160a01b03868116602483015293909204604483018190529492602091839160649183918c91165af1801561126f57611d6692611d1e87926020948b91611e31575b5061341a565b60098501546040516323b872dd60e01b81526001600160a01b03928316600482015233602482015260448101939093529193849260081c9091169082908a9082906064820190565b03925af1908115610507578691611e12575b5015611dd557600b01805490838203918211610d3657917f4c1758e5cc28ff42d56a2f5167a8f88aa9c7eca498fd6873eef018986dfc03a59391606093556040519133835260208301526040820152a260ff196010541660105580f35b60405162461bcd60e51b8152602060048201526015602482015274151bdad95b881d1c985b9cd9995c8819985a5b1959605a1b6044820152606490fd5b611e2b915060203d6020116106b9576106ab8183612f9b565b38611d78565b611e489150853d87116106b9576106ab8183612f9b565b38611d18565b60405162461bcd60e51b815260206004820152602360248201527f4e6f7420666f722073616c65206f7220696e73756666696369656e7420746f6b604482015262656e7360e81b6064820152608490fd5b5082600b8201541015611c9c565b60405162461bcd60e51b815260206004820152600b60248201526a416d6f756e74207a65726f60a81b6044820152606490fd5b503461028957611eef3661310a565b828452600c6020526040842060010180549091906001600160a01b031633811461212057156120e357611f2290836134ef565b9283156120ac576007546040516323b872dd60e01b81523360048201523060248201526044810186905290602090829060649082908a906001600160a01b03165af1938415610507576007606094611fa57f51a264f4268ed542a22198f96b6e3d76dfa1ab3146305d9a50af4e6be632b9b49761207a958b91612093575061341a565b88611fb1600b54613457565b9182600b5560018060a01b0390541660405194611fcd86612f63565b8386526020808701898152336040808a019182528c8a0195865260808a0194855260a08a018f81524260c08c0190815260e08c01898152998952600f90955296209851895590516001890155516002880180546001600160a01b039283166001600160a01b03199182161790915593516003890180549190921694169390931790925551600486015590516005850155516006840155519101805460ff191691151560ff16919091179055565b600b54936040519182523360208301526040820152a280f35b611e48915060203d6020116106b9576106ab8183612f9b565b60405162461bcd60e51b815260206004820152600f60248201526e125b9d985b1a59081c185e5b595b9d608a1b6044820152606490fd5b60405162461bcd60e51b8152602060048201526015602482015274141c9bd99a5b19481bdddb995c881b9bdd081cd95d605a1b6044820152606490fd5b60405162461bcd60e51b815260206004820152601460248201527321b0b73737ba103434b932903cb7bab939b2b63360611b6044820152606490fd5b503461028957602036600319011261028957612176612eab565b90600b5461218381613493565b9192839291906001600160a01b031660015b8281111561221e575050506121a983613493565b92825b8181106121fa57505050604051918291602083016020845282518091526020604085019301915b8181106121e1575050500390f35b82518452859450602093840193909201916001016121d3565b806122096001928597956134c5565b5161221482866134c5565b52019391936121ac565b808552600f60205260408520600301549395936001600160a01b03168214612252575b61224a90613457565b949294612195565b9261226b818561226561224a948a6134c5565b52613457565b939050612241565b50346102895780600319360112610289576020600a54604051908152f35b503461028957610dc86122a336613060565b90604051926122b3602085612f9b565b858452613579565b503461028957602036600319011261028957806040516122da81612f47565b81815281602082015260408101606090528160608201528160808201528160a08201528160c08201528160e08201528161010082015281610120820152816101408201528161016082015281610180820152816101a08201526101c001526004358152600d602052604090206040519061235382612f47565b805482526001810154602083019081529061237060028201612fbc565b926040810193845260038201549160608201928352600481015460808301908152600582015460a08401908152600683015460c08501908152600784015460ff169060e0860191151582526008850154610100870190815260098601549261012088019260ff851615158452610140890194600160a01b600190039060081c168552600a880154956101608a01968752600b890154976101808b01988952600c8a015460ff16996101a08c019a15158b52600d01549a6101c081019b8c526040519e8f9e8f926020845251602084015251604083015251606082016101e09052610200820161245e91612e6a565b9c516080909101525160a08d01525160c08c01525160e08b01525115156101008a015251610120890152511515610140880152516001600160a01b031661016087015251610180860152516101a08501525115156101c0840152516101e08301520390f35b5034610289576080366003190112610289576024356001600160401b03811161185c576124f49036906004016130ec565b6044356001600160401b0381116110ea576125139036906004016130ec565b906064356001600160401b038111610dcb576125339036906004016130ec565b6004358452600c60205260408420600101546001600160a01b031633036128e95761255f600954613457565b928360095560405191610ab191828401928484106001600160401b038511176116a4576125bc8594936125ae6a084595161401484a000000946060946139248939608087526080870190612e6a565b908582036020870152612e6a565b923360408201520152039084f09081156128de576040516125dc81612f47565b83815260208101916004358352604082019081524260608301528560808301528560a08301528560c08301528560e0830152856101008301528561012083015260018060a01b0384166101408301528561016083015285610180830152856101a0830152856101c0830152848652600d602052604086209282518455516001840155518051906001600160401b0382116110d65761267d6002850154612edc565b601f811161289a575b50602090601f8311600114612828579180600d94926101c0948a9261281d575b50508160011b916000199060031b1c19161760028501555b606081015160038501556080810151600485015560a0810151600585015560c0810151600685015561270560e08201511515600786019060ff801983541691151516179055565b6101008101516008850155600984016127316101208301511515829060ff801983541691151516179055565b6101408201518154610100600160a81b0360089290921b91909116610100600160a81b0319909116179055610160810151600a850155610180810151600b8501556101a0810151600c8501805460ff191691151560ff1691909117905501519101553315612809576001600160a01b036127ab83336137d0565b166127f5576040805160043581526001600160a01b0390921660208301527f479ec612f400c16ffe0e29ab35fd2726d09436492c66bd0b0b39fdff5817d01c919081908101610b8f565b6339e3563760e11b83526004839052602483fd5b633250574960e11b83526004839052602483fd5b0151905038806126a6565b9060028501885280882091885b601f1985168110612882575092600d94926001926101c09583601f19811610612869575b505050811b0160028501556126be565b015160001960f88460031b161c19169055388080612859565b91926020600181928685015181550194019201612835565b60028501885260208820601f840160051c8101602085106128d7575b601f830160051c820181106128cc575050612686565b8981556001016128b6565b50806128b6565b6040513d85823e3d90fd5b60405162461bcd60e51b81526020600482015260116024820152702737ba10383937b334b6329037bbb732b960791b6044820152606490fd5b503461028957602036600319011261028957600435600160105461294960ff8216156133b6565b60ff191617601055808252600d60205260408220600781019060ff82541615612a0957600861297784613799565b910180546007546040516323b872dd60e01b81523360048201526001600160a01b0380861660248301526044820184905290959293889390929091602091889160649183918891165af19586156128de57876111fb96612a027f3d246faee14ed5b15c0dc874215f17878e8525a9b3957dd99f17f749ead40620996111da948891612093575061341a565b339061389e565b60405162461bcd60e51b8152602060048201526011602482015270506f7374206e6f7420666f722073616c6560781b6044820152606490fd5b503461028957610dc8612a5436613060565b9161320a565b50346102895780600319360112610289576020600954604051908152f35b5034610289576020366003190112610289576004358152600d602052604090208054600182015491612aac60028201612fbc565b600382015491600481015460058201546006830154600784015460ff16600885015490600986015492600a87015494600b88015496600c89015460ff1698600d0154996040519d8e809e81526020015260408d016101e090526101e08d01612b1391612e6a565b60608d019b909b5260808c015260a08b015260c08a0152151560e089015261010088015260ff8116151561012088015260081c6001600160a01b031661014087015261016086015261018085015215156101a08401526101c08301520390f35b503461028957604036600319011261028957612b8d612eab565b602435612b9981613799565b33151580612c48575b80612c1d575b612c0a5781906001600160a01b0384811691167f8c5be1e5ebec7d5bd14f71427d1e84f3dd0314c0f7b2291e5b200ac8c7c3b9258680a4825260046020526040822080546001600160a01b0319166001600160a01b0390921691909117905580f35b63a9fbf51f60e01b845233600452602484fd5b506001600160a01b038116845260056020908152604080862033875290915284205460ff1615612ba8565b506001600160a01b038116331415612ba2565b503461028957602036600319011261028957602090600435612c7c81613799565b50815260048252604060018060a01b0391205416604051908152f35b5034610289576020366003190112610289578060409160808351612cbb81612f16565b828152826020820152828582015260608082015201526004358152600e60205220604051612ce881612f16565b8154815260018201546020820190815260028301546001600160a01b0316604083019081529092612d6a906004612d2160038301612fbc565b9160608601928352015492608085019384526040519586956020875251602087015251604086015260018060a01b0390511660608501525160a0608085015260c0840190612e6a565b905160a08301520390f35b50346102895780600319360112610289576040519080805490612d9782612edc565b808552916001811690811561191c5750600114612dbe57610285846118ab81860382612f9b565b80805260208120939250905b808210612de3575090915081016020016118ab8261189b565b919260018160209254838588010152019101909291612dca565b90503461185c57602036600319011261185c5760043563ffffffff60e01b81168091036110ea57602092506380ac58cd60e01b8114908115612e59575b8115612e48575b5015158152f35b6301ffc9a760e01b14905038612e41565b635b5e139f60e01b81149150612e3a565b919082519283825260005b848110612e96575050826000602080949584010152601f8019910116010190565b80602080928401015182828601015201612e75565b600435906001600160a01b0382168203612ec157565b600080fd5b602435906001600160a01b0382168203612ec157565b90600182811c92168015612f0c575b6020831014612ef657565b634e487b7160e01b600052602260045260246000fd5b91607f1691612eeb565b60a081019081106001600160401b03821117612f3157604052565b634e487b7160e01b600052604160045260246000fd5b6101e081019081106001600160401b03821117612f3157604052565b61010081019081106001600160401b03821117612f3157604052565b61012081019081106001600160401b03821117612f3157604052565b90601f801991011681019081106001600160401b03821117612f3157604052565b9060405191826000825492612fd084612edc565b808452936001811690811561303e5750600114612ff7575b50612ff592500383612f9b565b565b90506000929192526020600020906000915b818310613022575050906020612ff59282010138612fe8565b6020919350806001915483858901015201910190918492613009565b905060209250612ff594915060ff191682840152151560051b82010138612fe8565b6060906003190112612ec1576004356001600160a01b0381168103612ec157906024356001600160a01b0381168103612ec1579060443590565b6001600160401b038111612f3157601f01601f191660200190565b9291926130c18261309a565b916130cf6040519384612f9b565b829481845281830111612ec1578281602093846000960137010152565b9080601f83011215612ec157816020613107933591016130b5565b90565b6060906003190112612ec157600435906024359060443590565b6040906003190112612ec1576004359060243590565b90815260208101919091526001600160a01b03918216604082015291166060820152608081019190915260a081019190915260c081019190915290151560e08201526101000190565b908151815260018060a01b036020830151166020820152610100806131e36131d16131bf60408701516101206040880152610120870190612e6a565b60608701518682036060880152612e6a565b60808601518582036080870152612e6a565b9360a081015160a085015260c081015160c085015260e081015160e0850152015191015290565b6001600160a01b03909116919082156133a0576000828152600260205260408120546001600160a01b0316938391859033151580613308575b507fddf252ad1be2c89b69c2b068fc378daa952ba7f163c4a11628f55a4df523b3ef90826132d3575b83815260036020526040812060018154019055848152600260205260408120846bffffffffffffffffffffffff60a01b82541617905580a46001600160a01b03168083036132b957505050565b6364283d7b60e01b60005260045260245260445260646000fd5b600085815260046020526040902080546001600160a01b0319169055828152600360205260408120805460001901905561326c565b915091925080613351575b15613322579084849238613243565b83908561333b57602491637e27328960e01b8252600452fd5b60449163177e802f60e01b825233600452602452fd5b50338514801561337f575b806133135750838152600460205260408120546001600160a01b03163314613313565b5084815260056020908152604080832033845290915281205460ff1661335c565b633250574960e11b600052600060045260246000fd5b156133bd57565b60405162461bcd60e51b815260206004820152601f60248201527f5265656e7472616e637947756172643a207265656e7472616e742063616c6c006044820152606490fd5b90816020910312612ec157518015158103612ec15790565b1561342157565b60405162461bcd60e51b815260206004820152600e60248201526d14185e5b595b9d0819985a5b195960921b6044820152606490fd5b60001981146134665760010190565b634e487b7160e01b600052601160045260246000fd5b6001600160401b038111612f315760051b60200190565b9061349d8261347c565b6134aa6040519182612f9b565b82815280926134bb601f199161347c565b0190602036910137565b80518210156134d95760209160051b010190565b634e487b7160e01b600052603260045260246000fd5b8181029291811591840414171561346657565b1561350957565b60405162461bcd60e51b815260206004820152600d60248201526c2737ba1027232a1037bbb732b960991b6044820152606490fd5b1561354557565b60405162461bcd60e51b815260206004820152600c60248201526b141bdcdd0819195b195d195960a21b6044820152606490fd5b929161358681838661320a565b813b613593575b50505050565b604051630a85bd0160e11b81523360048201526001600160a01b03948516602482015260448101919091526080606482015292169190602090829081906135de906084830190612e6a565b03816000865af1809160009161367d575b509061364857503d15613641573d6136068161309a565b906136146040519283612f9b565b81523d6000602083013e5b8051908161363c5782633250574960e11b60005260045260246000fd5b602001fd5b606061361f565b6001600160e01b03191663757a42ff60e11b0161366957503880808061358d565b633250574960e11b60005260045260246000fd5b6020813d6020116136b8575b8161369660209383612f9b565b8101031261185c5751906001600160e01b0319821682036102895750386135ef565b3d9150613689565b604051906136cd82612f7f565b60006101008382815282602082015260606040820152606080820152606060808201528260a08201528260c08201528260e08201520152565b9060405161371381612f7f565b8254815260018301546001600160a01b031660208201529182906101009060089061374060028201612fbc565b604085015261375160038201612fbc565b606085015261376260048201612fbc565b6080850152600581015460a0850152600681015460c0850152600781015460e08501520154910152565b9190820180921161346657565b6000818152600260205260409020546001600160a01b03169081156137bc575090565b637e27328960e01b60005260045260246000fd5b6000828152600260205260409020546001600160a01b0316919082613867575b6001600160a01b03168061384d575b8160005260026020526040600020816bffffffffffffffffffffffff60a01b825416179055827fddf252ad1be2c89b69c2b068fc378daa952ba7f163c4a11628f55a4df523b3ef600080a490565b8060005260036020526040600020600181540190556137ff565b600082815260046020526040902080546001600160a01b0319169055826000526003602052604060002060001981540190556137f0565b919291906001600160a01b038116156133a0576001600160a01b03906138c59085906137d0565b1690816138e15783637e27328960e01b60005260045260246000fd5b919290916001600160a01b03168083036132b957505050565b6006546001600160a01b0316330361390e57565b63118cdaa760e01b6000523360045260246000fdfe6080604052346103c757610ab180380380610019816103cc565b9283398101906080818303126103c75780516001600160401b0381116103c757826100459183016103f1565b602082015190926001600160401b0382116103c7576100659183016103f1565b604082015190916001600160a01b038216918290036103c7576060015183516001600160401b0381116102d057600354600181811c911680156103bd575b60208210146102b057601f8111610358575b50602094601f82116001146102f1579481929394956000926102e6575b50508160011b916000199060031b1c1916176003555b82516001600160401b0381116102d057600454600181811c911680156102c6575b60208210146102b057601f811161024b575b506020601f82116001146101e457819293946000926101d9575b50508160011b916000199060031b1c1916176004555b81156101c3576002548181018091116101ad576002557fddf252ad1be2c89b69c2b068fc378daa952ba7f163c4a11628f55a4df523b3ef602060009284845283825260408420818154019055604051908152a3604051610654908161045d8239f35b634e487b7160e01b600052601160045260246000fd5b63ec442f0560e01b600052600060045260246000fd5b015190503880610135565b601f198216906004600052806000209160005b8181106102335750958360019596971061021a575b505050811b0160045561014b565b015160001960f88460031b161c1916905538808061020c565b9192602060018192868b0151815501940192016101f7565b60046000527f8a35acfbc15ff81a39ae7d344fd709f28e8600b4aa8c65c6b64bfe7fe36bd19b601f830160051c810191602084106102a6575b601f0160051c01905b81811061029a575061011b565b6000815560010161028d565b9091508190610284565b634e487b7160e01b600052602260045260246000fd5b90607f1690610109565b634e487b7160e01b600052604160045260246000fd5b0151905038806100d2565b601f198216956003600052806000209160005b88811061034057508360019596979810610327575b505050811b016003556100e8565b015160001960f88460031b161c19169055388080610319565b91926020600181928685015181550194019201610304565b60036000527fc2575a0e9e593c00f959f8c92f12db2869c3395a3b0502d05e2516446f71f85b601f830160051c810191602084106103b3575b601f0160051c01905b8181106103a757506100b5565b6000815560010161039a565b9091508190610391565b90607f16906100a3565b600080fd5b6040519190601f01601f191682016001600160401b038111838210176102d057604052565b81601f820112156103c7578051906001600160401b0382116102d057610420601f8301601f19166020016103cc565b92828452602083830101116103c75760005b82811061044757505060206000918301015290565b8060208092840101518282870101520161043256fe608080604052600436101561001357600080fd5b60003560e01c90816306fdde031461041157508063095ea7b31461038b57806318160ddd1461036d57806323b872dd14610280578063313ce5671461026457806370a082311461022a57806395d89b4114610109578063a9059cbb146100d85763dd62ed3e1461008257600080fd5b346100d35760403660031901126100d35761009b61052d565b6100a3610543565b6001600160a01b039182166000908152600160209081526040808320949093168252928352819020549051908152f35b600080fd5b346100d35760403660031901126100d3576100fe6100f461052d565b6024359033610559565b602060405160018152f35b346100d35760003660031901126100d35760405160006004548060011c90600181168015610220575b60208310811461020c578285529081156101f05750600114610199575b50819003601f01601f191681019067ffffffffffffffff8211818310176101835761017f829182604052826104e4565b0390f35b634e487b7160e01b600052604160045260246000fd5b905060046000527f8a35acfbc15ff81a39ae7d344fd709f28e8600b4aa8c65c6b64bfe7fe36bd19b6000905b8282106101da5750602091508201018261014f565b60018160209254838588010152019101906101c5565b90506020925060ff191682840152151560051b8201018261014f565b634e487b7160e01b84526022600452602484fd5b91607f1691610132565b346100d35760203660031901126100d3576001600160a01b0361024b61052d565b1660005260006020526020604060002054604051908152f35b346100d35760003660031901126100d357602060405160128152f35b346100d35760603660031901126100d35761029961052d565b6102a1610543565b6001600160a01b03821660008181526001602090815260408083203384529091529020549092604435929160001981106102e1575b506100fe9350610559565b83811061035057841561033a573315610324576100fe946000526001602052604060002060018060a01b03331660005260205283604060002091039055846102d6565b634a1406b160e11b600052600060045260246000fd5b63e602df0560e01b600052600060045260246000fd5b8390637dc7a0d960e11b6000523360045260245260445260646000fd5b346100d35760003660031901126100d3576020600254604051908152f35b346100d35760403660031901126100d3576103a461052d565b60243590331561033a576001600160a01b031690811561032457336000526001602052604060002082600052602052806040600020556040519081527f8c5be1e5ebec7d5bd14f71427d1e84f3dd0314c0f7b2291e5b200ac8c7c3b92560203392a3602060405160018152f35b346100d35760003660031901126100d35760006003548060011c906001811680156104da575b60208310811461020c578285529081156101f057506001146104835750819003601f01601f191681019067ffffffffffffffff8211818310176101835761017f829182604052826104e4565b905060036000527fc2575a0e9e593c00f959f8c92f12db2869c3395a3b0502d05e2516446f71f85b6000905b8282106104c45750602091508201018261014f565b60018160209254838588010152019101906104af565b91607f1691610437565b91909160208152825180602083015260005b818110610517575060409293506000838284010152601f8019910116010190565b80602080928701015160408286010152016104f6565b600435906001600160a01b03821682036100d357565b602435906001600160a01b03821682036100d357565b6001600160a01b0316908115610608576001600160a01b03169182156105f25760008281528060205260408120548281106105d85791604082827fddf252ad1be2c89b69c2b068fc378daa952ba7f163c4a11628f55a4df523b3ef958760209652828652038282205586815280845220818154019055604051908152a3565b916064928463391434e360e21b8452600452602452604452fd5b63ec442f0560e01b600052600060045260246000fd5b634b637e8f60e11b600052600060045260246000fdfea26469706673582212206e1a01db289044697e8fa748785538a232af608ab367b8c9405d17d3670c040264736f6c634300081c0033a2646970667358221220fc885aee46ce348c42bb05b31fa937e6940fdeb920d54d1bf488006b9a2f089b64736f6c634300081c0033",
  "linkReferences": {},
  "deployedLinkReferences": {}
}